{
  "contractName": "Exchange",
  "abi": [
    {
      "inputs": [
        {
          "internalType": "address",
          "name": "_feeAccount",
          "type": "address"
        },
        {
          "internalType": "uint256",
          "name": "_feePercent",
          "type": "uint256"
        }
      ],
      "stateMutability": "nonpayable",
      "type": "constructor"
    },
    {
      "anonymous": false,
      "inputs": [
        {
          "indexed": false,
          "internalType": "uint256",
          "name": "id",
          "type": "uint256"
        },
        {
          "indexed": false,
          "internalType": "address",
          "name": "user",
          "type": "address"
        },
        {
          "indexed": false,
          "internalType": "address",
          "name": "tokenGet",
          "type": "address"
        },
        {
          "indexed": false,
          "internalType": "uint256",
          "name": "amountGet",
          "type": "uint256"
        },
        {
          "indexed": false,
          "internalType": "address",
          "name": "tokenGive",
          "type": "address"
        },
        {
          "indexed": false,
          "internalType": "uint256",
          "name": "amountGive",
          "type": "uint256"
        },
        {
          "indexed": false,
          "internalType": "uint256",
          "name": "timestamp",
          "type": "uint256"
        }
      ],
      "name": "Cancel",
      "type": "event"
    },
    {
      "anonymous": false,
      "inputs": [
        {
          "indexed": false,
          "internalType": "address",
          "name": "token",
          "type": "address"
        },
        {
          "indexed": false,
          "internalType": "address",
          "name": "user",
          "type": "address"
        },
        {
          "indexed": false,
          "internalType": "uint256",
          "name": "amount",
          "type": "uint256"
        },
        {
          "indexed": false,
          "internalType": "uint256",
          "name": "balance",
          "type": "uint256"
        }
      ],
      "name": "Deposit",
      "type": "event"
    },
    {
      "anonymous": false,
      "inputs": [
        {
          "indexed": false,
          "internalType": "uint256",
          "name": "ret",
          "type": "uint256"
        }
      ],
      "name": "LOG_RETURN",
      "type": "event"
    },
    {
      "anonymous": false,
      "inputs": [
        {
          "indexed": false,
          "internalType": "uint256",
          "name": "id",
          "type": "uint256"
        },
        {
          "indexed": false,
          "internalType": "address",
          "name": "user",
          "type": "address"
        },
        {
          "indexed": false,
          "internalType": "address",
          "name": "tokenGet",
          "type": "address"
        },
        {
          "indexed": false,
          "internalType": "uint256",
          "name": "amountGet",
          "type": "uint256"
        },
        {
          "indexed": false,
          "internalType": "address",
          "name": "tokenGive",
          "type": "address"
        },
        {
          "indexed": false,
          "internalType": "uint256",
          "name": "amountGive",
          "type": "uint256"
        },
        {
          "indexed": false,
          "internalType": "uint256",
          "name": "timestamp",
          "type": "uint256"
        }
      ],
      "name": "Order",
      "type": "event"
    },
    {
      "anonymous": false,
      "inputs": [
        {
          "indexed": false,
          "internalType": "uint256",
          "name": "id",
          "type": "uint256"
        },
        {
          "indexed": false,
          "internalType": "address",
          "name": "user",
          "type": "address"
        },
        {
          "indexed": false,
          "internalType": "address",
          "name": "tokenGet",
          "type": "address"
        },
        {
          "indexed": false,
          "internalType": "uint256",
          "name": "amountGet",
          "type": "uint256"
        },
        {
          "indexed": false,
          "internalType": "address",
          "name": "tokenGive",
          "type": "address"
        },
        {
          "indexed": false,
          "internalType": "uint256",
          "name": "amountGive",
          "type": "uint256"
        },
        {
          "indexed": false,
          "internalType": "address",
          "name": "userFill",
          "type": "address"
        },
        {
          "indexed": false,
          "internalType": "uint256",
          "name": "timestamp",
          "type": "uint256"
        }
      ],
      "name": "Trade",
      "type": "event"
    },
    {
      "anonymous": false,
      "inputs": [
        {
          "indexed": false,
          "internalType": "address",
          "name": "token",
          "type": "address"
        },
        {
          "indexed": false,
          "internalType": "address",
          "name": "user",
          "type": "address"
        },
        {
          "indexed": false,
          "internalType": "uint256",
          "name": "amount",
          "type": "uint256"
        },
        {
          "indexed": false,
          "internalType": "uint256",
          "name": "balance",
          "type": "uint256"
        }
      ],
      "name": "Withdraw",
      "type": "event"
    },
    {
      "stateMutability": "payable",
      "type": "fallback",
      "payable": true
    },
    {
      "inputs": [],
      "name": "decimals",
      "outputs": [
        {
          "internalType": "uint256",
          "name": "",
          "type": "uint256"
        }
      ],
      "stateMutability": "view",
      "type": "function",
      "constant": true
    },
    {
      "inputs": [],
      "name": "feeAccount",
      "outputs": [
        {
          "internalType": "address",
          "name": "",
          "type": "address"
        }
      ],
      "stateMutability": "view",
      "type": "function",
      "constant": true
    },
    {
      "inputs": [],
      "name": "feePercent",
      "outputs": [
        {
          "internalType": "uint256",
          "name": "",
          "type": "uint256"
        }
      ],
      "stateMutability": "view",
      "type": "function",
      "constant": true
    },
    {
      "inputs": [
        {
          "internalType": "uint256",
          "name": "",
          "type": "uint256"
        }
      ],
      "name": "orderCancelled",
      "outputs": [
        {
          "internalType": "bool",
          "name": "",
          "type": "bool"
        }
      ],
      "stateMutability": "view",
      "type": "function",
      "constant": true
    },
    {
      "inputs": [],
      "name": "orderCount",
      "outputs": [
        {
          "internalType": "uint256",
          "name": "",
          "type": "uint256"
        }
      ],
      "stateMutability": "view",
      "type": "function",
      "constant": true
    },
    {
      "inputs": [
        {
          "internalType": "uint256",
          "name": "",
          "type": "uint256"
        }
      ],
      "name": "orderFilled",
      "outputs": [
        {
          "internalType": "bool",
          "name": "",
          "type": "bool"
        }
      ],
      "stateMutability": "view",
      "type": "function",
      "constant": true
    },
    {
      "inputs": [
        {
          "internalType": "uint256",
          "name": "",
          "type": "uint256"
        }
      ],
      "name": "orders",
      "outputs": [
        {
          "internalType": "uint256",
          "name": "id",
          "type": "uint256"
        },
        {
          "internalType": "address",
          "name": "user",
          "type": "address"
        },
        {
          "internalType": "address",
          "name": "tokenGet",
          "type": "address"
        },
        {
          "internalType": "uint256",
          "name": "amountGet",
          "type": "uint256"
        },
        {
          "internalType": "address",
          "name": "tokenGive",
          "type": "address"
        },
        {
          "internalType": "uint256",
          "name": "amountGive",
          "type": "uint256"
        },
        {
          "internalType": "uint256",
          "name": "timestamp",
          "type": "uint256"
        }
      ],
      "stateMutability": "view",
      "type": "function",
      "constant": true
    },
    {
      "inputs": [
        {
          "internalType": "address",
          "name": "",
          "type": "address"
        },
        {
          "internalType": "address",
          "name": "",
          "type": "address"
        }
      ],
      "name": "tokens",
      "outputs": [
        {
          "internalType": "uint256",
          "name": "",
          "type": "uint256"
        }
      ],
      "stateMutability": "view",
      "type": "function",
      "constant": true
    },
    {
      "stateMutability": "payable",
      "type": "receive",
      "payable": true
    },
    {
      "inputs": [],
      "name": "depositEther",
      "outputs": [],
      "stateMutability": "payable",
      "type": "function",
      "payable": true
    },
    {
      "inputs": [
        {
          "internalType": "uint256",
          "name": "_amount",
          "type": "uint256"
        }
      ],
      "name": "withdrawEther",
      "outputs": [],
      "stateMutability": "payable",
      "type": "function",
      "payable": true
    },
    {
      "inputs": [
        {
          "internalType": "address",
          "name": "_token",
          "type": "address"
        },
        {
          "internalType": "uint256",
          "name": "_amount",
          "type": "uint256"
        }
      ],
      "name": "depositToken",
      "outputs": [],
      "stateMutability": "nonpayable",
      "type": "function"
    },
    {
      "inputs": [
        {
          "internalType": "address",
          "name": "_token",
          "type": "address"
        },
        {
          "internalType": "uint256",
          "name": "_amount",
          "type": "uint256"
        }
      ],
      "name": "withdrawToken",
      "outputs": [],
      "stateMutability": "nonpayable",
      "type": "function"
    },
    {
      "inputs": [
        {
          "internalType": "address",
          "name": "_token",
          "type": "address"
        },
        {
          "internalType": "address",
          "name": "_user",
          "type": "address"
        }
      ],
      "name": "balanceOf",
      "outputs": [
        {
          "internalType": "uint256",
          "name": "",
          "type": "uint256"
        }
      ],
      "stateMutability": "view",
      "type": "function",
      "constant": true
    },
    {
      "inputs": [
        {
          "internalType": "address",
          "name": "_tokenGet",
          "type": "address"
        },
        {
          "internalType": "uint256",
          "name": "_amountGet",
          "type": "uint256"
        },
        {
          "internalType": "address",
          "name": "_tokenGive",
          "type": "address"
        },
        {
          "internalType": "uint256",
          "name": "_amountGive",
          "type": "uint256"
        }
      ],
      "name": "makeOrder",
      "outputs": [],
      "stateMutability": "nonpayable",
      "type": "function"
    },
    {
      "inputs": [
        {
          "internalType": "uint256",
          "name": "_amountGet",
          "type": "uint256"
        },
        {
          "internalType": "address",
          "name": "_tokenGive",
          "type": "address"
        },
        {
          "internalType": "uint256",
          "name": "_amountGive",
          "type": "uint256"
        }
      ],
      "name": "doMatchs",
      "outputs": [
        {
          "internalType": "uint256",
          "name": "",
          "type": "uint256"
        }
      ],
      "stateMutability": "nonpayable",
      "type": "function"
    },
    {
      "inputs": [
        {
          "internalType": "uint256",
          "name": "_amountGet",
          "type": "uint256"
        },
        {
          "internalType": "address",
          "name": "_tokenGive",
          "type": "address"
        },
        {
          "internalType": "uint256",
          "name": "_amountGive",
          "type": "uint256"
        }
      ],
      "name": "doMatch",
      "outputs": [
        {
          "internalType": "uint256",
          "name": "",
          "type": "uint256"
        }
      ],
      "stateMutability": "nonpayable",
      "type": "function"
    },
    {
      "inputs": [
        {
          "internalType": "uint256",
          "name": "_id",
          "type": "uint256"
        },
        {
          "internalType": "uint256",
          "name": "count",
          "type": "uint256"
        },
        {
          "internalType": "address",
          "name": "addr",
          "type": "address"
        }
      ],
      "name": "splitOrder",
      "outputs": [],
      "stateMutability": "nonpayable",
      "type": "function"
    },
    {
      "inputs": [],
      "name": "_maxPriceIdx",
      "outputs": [
        {
          "internalType": "uint256",
          "name": "",
          "type": "uint256"
        }
      ],
      "stateMutability": "view",
      "type": "function",
      "constant": true
    },
    {
      "inputs": [],
      "name": "_minPriceIdx",
      "outputs": [
        {
          "internalType": "uint256",
          "name": "",
          "type": "uint256"
        }
      ],
      "stateMutability": "view",
      "type": "function",
      "constant": true
    },
    {
      "inputs": [
        {
          "internalType": "uint256",
          "name": "_id",
          "type": "uint256"
        }
      ],
      "name": "cancelOrder",
      "outputs": [],
      "stateMutability": "nonpayable",
      "type": "function"
    },
    {
      "inputs": [
        {
          "internalType": "uint256",
          "name": "_id",
          "type": "uint256"
        }
      ],
      "name": "fillOrder",
      "outputs": [],
      "stateMutability": "nonpayable",
      "type": "function"
    }
  ],
  "bytecode": "0x60806040526305f5e10060005534801561001857600080fd5b506040516133923803806133928339818101604052604081101561003b57600080fd5b81019080805190602001909291908051906020019092919050505081600160006101000a81548173ffffffffffffffffffffffffffffffffffffffff021916908373ffffffffffffffffffffffffffffffffffffffff1602179055508060028190555050506132e3806100af6000396000f3fe60806040526004361061012e5760003560e01c80637fd6f15c116100ab5780639e281a981161006f5780639e281a981461057d578063a85c38ef146105d8578063d807968014610693578063e9c18966146106be578063efc931021461070f578063f7888aec1461077457610135565b80637fd6f15c1461041f578063853e352b1461044a5780638b0b84291461047557806398ea5fca146104ee5780639a5c90aa146104f857610135565b80634a93e0da116100f25780634a93e0da14610292578063508493bc146102e3578063514fcac71461036857806365e17c9d146103a357806367b830ad146103e457610135565b80632453ffa81461013a5780632becefbd14610165578063313ce567146101de578063338b5dea146102095780633bed33ce1461026457610135565b3661013557005b600080fd5b34801561014657600080fd5b5061014f6107f9565b6040518082815260200191505060405180910390f35b34801561017157600080fd5b506101c86004803603606081101561018857600080fd5b8101908080359060200190929190803573ffffffffffffffffffffffffffffffffffffffff169060200190929190803590602001909291905050506107ff565b6040518082815260200191505060405180910390f35b3480156101ea57600080fd5b506101f36109af565b6040518082815260200191505060405180910390f35b34801561021557600080fd5b506102626004803603604081101561022c57600080fd5b81019080803573ffffffffffffffffffffffffffffffffffffffff169060200190929190803590602001909291905050506109b5565b005b6102906004803603602081101561027a57600080fd5b8101908080359060200190929190505050610d81565b005b34801561029e57600080fd5b506102cb600480360360208110156102b557600080fd5b81019080803590602001909291905050506110c4565b60405180821515815260200191505060405180910390f35b3480156102ef57600080fd5b506103526004803603604081101561030657600080fd5b81019080803573ffffffffffffffffffffffffffffffffffffffff169060200190929190803573ffffffffffffffffffffffffffffffffffffffff1690602001909291905050506110e4565b6040518082815260200191505060405180910390f35b34801561037457600080fd5b506103a16004803603602081101561038b57600080fd5b8101908080359060200190929190505050611109565b005b3480156103af57600080fd5b506103b861136e565b604051808273ffffffffffffffffffffffffffffffffffffffff16815260200191505060405180910390f35b3480156103f057600080fd5b5061041d6004803603602081101561040757600080fd5b8101908080359060200190929190505050611394565b005b34801561042b57600080fd5b50610434611611565b6040518082815260200191505060405180910390f35b34801561045657600080fd5b5061045f611617565b6040518082815260200191505060405180910390f35b34801561048157600080fd5b506104d86004803603606081101561049857600080fd5b8101908080359060200190929190803573ffffffffffffffffffffffffffffffffffffffff16906020019092919080359060200190929190505050611755565b6040518082815260200191505060405180910390f35b6104f6611a79565b005b34801561050457600080fd5b5061057b6004803603608081101561051b57600080fd5b81019080803573ffffffffffffffffffffffffffffffffffffffff16906020019092919080359060200190929190803573ffffffffffffffffffffffffffffffffffffffff16906020019092919080359060200190929190505050611c82565b005b34801561058957600080fd5b506105d6600480360360408110156105a057600080fd5b81019080803573ffffffffffffffffffffffffffffffffffffffff16906020019092919080359060200190929190505050612299565b005b3480156105e457600080fd5b50610611600480360360208110156105fb57600080fd5b8101908080359060200190929190505050612756565b604051808881526020018773ffffffffffffffffffffffffffffffffffffffff1681526020018673ffffffffffffffffffffffffffffffffffffffff1681526020018581526020018473ffffffffffffffffffffffffffffffffffffffff16815260200183815260200182815260200197505050505050505060405180910390f35b34801561069f57600080fd5b506106a86127f8565b6040518082815260200191505060405180910390f35b3480156106ca57600080fd5b506106f7600480360360208110156106e157600080fd5b8101908080359060200190929190505050612956565b60405180821515815260200191505060405180910390f35b34801561071b57600080fd5b506107726004803603606081101561073257600080fd5b810190808035906020019092919080359060200190929190803573ffffffffffffffffffffffffffffffffffffffff169060200190929190505050612976565b005b34801561078057600080fd5b506107e36004803603604081101561079757600080fd5b81019080803573ffffffffffffffffffffffffffffffffffffffff169060200190929190803573ffffffffffffffffffffffffffffffffffffffff169060200190929190505050612ac6565b6040518082815260200191505060405180910390f35b60035481565b60008060009050600073ffffffffffffffffffffffffffffffffffffffff168473ffffffffffffffffffffffffffffffffffffffff16141561084057600190505b6000859050600084905082156108fe5760006108798861086b60005489612b4d90919063ffffffff16565b612b8790919063ffffffff16565b90505b60008311156108e45760006108b884896108b36000546108a58988612b4d90919063ffffffff16565b612b8790919063ffffffff16565b611755565b905060008114156108c957506108e4565b6108dc8185612bad90919063ffffffff16565b93505061087c565b60008310156108f257600080fd5b829450505050506109a8565b6000610927866109196000548b612b4d90919063ffffffff16565b612b8790919063ffffffff16565b90505b600082111561099257600061096661095f6000546109518686612b4d90919063ffffffff16565b612b8790919063ffffffff16565b8985611755565b905060008114156109775750610992565b61098a8184612bad90919063ffffffff16565b92505061092a565b60008210156109a057600080fd5b819450505050505b9392505050565b60005481565b600073ffffffffffffffffffffffffffffffffffffffff168273ffffffffffffffffffffffffffffffffffffffff161415610a58576040517f08c379a00000000000000000000000000000000000000000000000000000000081526004018080602001828103825260158152602001807f546f6b656e2063616e6e6f74206265204574686572000000000000000000000081525060200191505060405180910390fd5b8173ffffffffffffffffffffffffffffffffffffffff166323b872dd3330846040518463ffffffff1660e01b8152600401808473ffffffffffffffffffffffffffffffffffffffff1681526020018373ffffffffffffffffffffffffffffffffffffffff1681526020018281526020019350505050602060405180830381600087803b158015610ae757600080fd5b505af1158015610afb573d6000803e3d6000fd5b505050506040513d6020811015610b1157600080fd5b8101908080519060200190929190505050610b77576040517f08c379a00000000000000000000000000000000000000000000000000000000081526004018080602001828103825260238152602001806132606023913960400191505060405180910390fd5b610c0681600460008573ffffffffffffffffffffffffffffffffffffffff1673ffffffffffffffffffffffffffffffffffffffff16815260200190815260200160002060003373ffffffffffffffffffffffffffffffffffffffff1673ffffffffffffffffffffffffffffffffffffffff16815260200190815260200160002054612bcd90919063ffffffff16565b600460008473ffffffffffffffffffffffffffffffffffffffff1673ffffffffffffffffffffffffffffffffffffffff16815260200190815260200160002060003373ffffffffffffffffffffffffffffffffffffffff1673ffffffffffffffffffffffffffffffffffffffff168152602001908152602001600020819055507fdcbc1c05240f31ff3ad067ef1ee35ce4997762752e3a095284754544f4c709d7823383600460008773ffffffffffffffffffffffffffffffffffffffff1673ffffffffffffffffffffffffffffffffffffffff16815260200190815260200160002060003373ffffffffffffffffffffffffffffffffffffffff1673ffffffffffffffffffffffffffffffffffffffff16815260200190815260200160002054604051808573ffffffffffffffffffffffffffffffffffffffff1681526020018473ffffffffffffffffffffffffffffffffffffffff16815260200183815260200182815260200194505050505060405180910390a15050565b80600460008073ffffffffffffffffffffffffffffffffffffffff1673ffffffffffffffffffffffffffffffffffffffff16815260200190815260200160002060003373ffffffffffffffffffffffffffffffffffffffff1673ffffffffffffffffffffffffffffffffffffffff168152602001908152602001600020541015610e73576040517f08c379a00000000000000000000000000000000000000000000000000000000081526004018080602001828103825260128152602001807f496e73756666696369656e742066756e6473000000000000000000000000000081525060200191505060405180910390fd5b610f0281600460008073ffffffffffffffffffffffffffffffffffffffff1673ffffffffffffffffffffffffffffffffffffffff16815260200190815260200160002060003373ffffffffffffffffffffffffffffffffffffffff1673ffffffffffffffffffffffffffffffffffffffff16815260200190815260200160002054612bad90919063ffffffff16565b600460008073ffffffffffffffffffffffffffffffffffffffff1673ffffffffffffffffffffffffffffffffffffffff16815260200190815260200160002060003373ffffffffffffffffffffffffffffffffffffffff1673ffffffffffffffffffffffffffffffffffffffff168152602001908152602001600020819055503373ffffffffffffffffffffffffffffffffffffffff166108fc829081150290604051600060405180830381858888f19350505050158015610fc8573d6000803e3d6000fd5b507ff341246adaac6f497bc2a656f546ab9e182111d630394f0c57c710a59a2cb56760003383600460008073ffffffffffffffffffffffffffffffffffffffff1673ffffffffffffffffffffffffffffffffffffffff16815260200190815260200160002060003373ffffffffffffffffffffffffffffffffffffffff1673ffffffffffffffffffffffffffffffffffffffff16815260200190815260200160002054604051808573ffffffffffffffffffffffffffffffffffffffff1681526020018473ffffffffffffffffffffffffffffffffffffffff16815260200183815260200182815260200194505050505060405180910390a150565b60076020528060005260406000206000915054906101000a900460ff1681565b6004602052816000526040600020602052806000526040600020600091509150505481565b60006005600083815260200190815260200160002090503373ffffffffffffffffffffffffffffffffffffffff168160010160009054906101000a900473ffffffffffffffffffffffffffffffffffffffff1673ffffffffffffffffffffffffffffffffffffffff16146111c8576040517f08c379a000000000000000000000000000000000000000000000000000000000815260040180806020018281038252602b815260200180613283602b913960400191505060405180910390fd5b81816000015414611241576040517f08c379a00000000000000000000000000000000000000000000000000000000081526004018080602001828103825260148152602001807f4f7264657220646f6573206e6f7420657869737400000000000000000000000081525060200191505060405180910390fd5b60016006600084815260200190815260200160002060006101000a81548160ff0219169083151502179055507f77de1da0be5f2d3b110d05c6694e5c4ff2d9da7cd23d84353ecf78c7b5acec618160000154338360020160009054906101000a900473ffffffffffffffffffffffffffffffffffffffff1684600301548560040160009054906101000a900473ffffffffffffffffffffffffffffffffffffffff16866005015442604051808881526020018773ffffffffffffffffffffffffffffffffffffffff1681526020018673ffffffffffffffffffffffffffffffffffffffff1681526020018581526020018473ffffffffffffffffffffffffffffffffffffffff16815260200183815260200182815260200197505050505050505060405180910390a15050565b600160009054906101000a900473ffffffffffffffffffffffffffffffffffffffff1681565b6000811180156113a657506003548111155b611418576040517f08c379a00000000000000000000000000000000000000000000000000000000081526004018080602001828103825260148152602001807f4f7264657220646f6573206e6f7420657869737400000000000000000000000081525060200191505060405180910390fd5b6007600082815260200190815260200160002060009054906101000a900460ff16156114ac576040517f08c379a00000000000000000000000000000000000000000000000000000000081526004018080602001828103825260178152602001807f4f7264657220697320616c72656164792066696c6c656400000000000000000081525060200191505060405180910390fd5b6006600082815260200190815260200160002060009054906101000a900460ff1615611540576040517f08c379a000000000000000000000000000000000000000000000000000000000815260040180806020018281038252601a8152602001807f4f7264657220697320616c72656164792063616e63656c6c656400000000000081525060200191505060405180910390fd5b60006005600083815260200190815260200160002090506115dd81600001548260010160009054906101000a900473ffffffffffffffffffffffffffffffffffffffff168360020160009054906101000a900473ffffffffffffffffffffffffffffffffffffffff1684600301548560040160009054906101000a900473ffffffffffffffffffffffffffffffffffffffff168660050154612bec565b6001600760008360000154815260200190815260200160002060006101000a81548160ff0219169083151502179055505050565b60025481565b60008060009050600080600190505b600354811161174c576006600082815260200190815260200160002060009054906101000a900460ff161561165a5761173f565b6007600082815260200190815260200160002060009054906101000a900460ff16156116855761173f565b6000600560008381526020019081526020016000209050600073ffffffffffffffffffffffffffffffffffffffff168160040160009054906101000a900473ffffffffffffffffffffffffffffffffffffffff1673ffffffffffffffffffffffffffffffffffffffff16146116fa575061173f565b600061172b826003015461171d6000548560050154612b4d90919063ffffffff16565b612b8790919063ffffffff16565b90508085101561173c578094508293505b50505b8080600101915050611626565b50809250505090565b60008060009050600073ffffffffffffffffffffffffffffffffffffffff168473ffffffffffffffffffffffffffffffffffffffff16141561179657600190505b80156119095760006117c5866117b760005487612b4d90919063ffffffff16565b612b8790919063ffffffff16565b905060006117d16127f8565b905060008114156117e85760009350505050611a72565b6000600560008381526020019081526020016000209050600061183082600501546118226000548560030154612b4d90919063ffffffff16565b612b8790919063ffffffff16565b90508084106118fb578160050154891061185e5761184d83611394565b816005015495505050505050611a72565b611869838a8a612976565b6118e38260020160009054906101000a900473ffffffffffffffffffffffffffffffffffffffff166118b86000546118aa8d86612b4d90919063ffffffff16565b612b8790919063ffffffff16565b8460040160009054906101000a900473ffffffffffffffffffffffffffffffffffffffff168c611c82565b6118ee600354611394565b8895505050505050611a72565b600095505050505050611a72565b60006119328461192460005489612b4d90919063ffffffff16565b612b8790919063ffffffff16565b9050600061193e611617565b905060008114156119555760009350505050611a72565b6000600560008381526020019081526020016000209050600061199d826003015461198f6000548560050154612b4d90919063ffffffff16565b612b8790919063ffffffff16565b9050808411611a6857816003015487106119cb576119ba83611394565b816003015495505050505050611a72565b6119d683888a612976565b611a508260020160009054906101000a900473ffffffffffffffffffffffffffffffffffffffff16888460040160009054906101000a900473ffffffffffffffffffffffffffffffffffffffff16611a4b600054611a3d8f8b612b4d90919063ffffffff16565b612b8790919063ffffffff16565b611c82565b611a5b600354611394565b8695505050505050611a72565b6000955050505050505b9392505050565b611b0834600460008073ffffffffffffffffffffffffffffffffffffffff1673ffffffffffffffffffffffffffffffffffffffff16815260200190815260200160002060003373ffffffffffffffffffffffffffffffffffffffff1673ffffffffffffffffffffffffffffffffffffffff16815260200190815260200160002054612bcd90919063ffffffff16565b600460008073ffffffffffffffffffffffffffffffffffffffff1673ffffffffffffffffffffffffffffffffffffffff16815260200190815260200160002060003373ffffffffffffffffffffffffffffffffffffffff1673ffffffffffffffffffffffffffffffffffffffff168152602001908152602001600020819055507fdcbc1c05240f31ff3ad067ef1ee35ce4997762752e3a095284754544f4c709d760003334600460008073ffffffffffffffffffffffffffffffffffffffff1673ffffffffffffffffffffffffffffffffffffffff16815260200190815260200160002060003373ffffffffffffffffffffffffffffffffffffffff1673ffffffffffffffffffffffffffffffffffffffff16815260200190815260200160002054604051808573ffffffffffffffffffffffffffffffffffffffff1681526020018473ffffffffffffffffffffffffffffffffffffffff16815260200183815260200182815260200194505050505060405180910390a1565b60008073ffffffffffffffffffffffffffffffffffffffff168373ffffffffffffffffffffffffffffffffffffffff161415611cbd57600190505b8015611fac576000849050611cd38585856107ff565b90506000811415611ce5575050612293565b6000611d0e86611d0060005487612b4d90919063ffffffff16565b612b8790919063ffffffff16565b90506003600081548092919060010191905055506040518060e0016040528060035481526020013373ffffffffffffffffffffffffffffffffffffffff1681526020018873ffffffffffffffffffffffffffffffffffffffff1681526020018381526020018673ffffffffffffffffffffffffffffffffffffffff168152602001611db6600054611da88686612b4d90919063ffffffff16565b612b8790919063ffffffff16565b8152602001428152506005600060035481526020019081526020016000206000820151816000015560208201518160010160006101000a81548173ffffffffffffffffffffffffffffffffffffffff021916908373ffffffffffffffffffffffffffffffffffffffff16021790555060408201518160020160006101000a81548173ffffffffffffffffffffffffffffffffffffffff021916908373ffffffffffffffffffffffffffffffffffffffff1602179055506060820151816003015560808201518160040160006101000a81548173ffffffffffffffffffffffffffffffffffffffff021916908373ffffffffffffffffffffffffffffffffffffffff16021790555060a0820151816005015560c082015181600601559050507f9d33853d43e3607b4cc01fdc78338ff2dca6fef7db9232dae6d3eb55fbc3b10960035433898589611f23600054611f158a8a612b4d90919063ffffffff16565b612b8790919063ffffffff16565b42604051808881526020018773ffffffffffffffffffffffffffffffffffffffff1681526020018673ffffffffffffffffffffffffffffffffffffffff1681526020018581526020018473ffffffffffffffffffffffffffffffffffffffff16815260200183815260200182815260200197505050505050505060405180910390a15050612291565b6000829050611fbc8585856107ff565b90506000811415611fce575050612293565b6000611ff784611fe960005489612b4d90919063ffffffff16565b612b8790919063ffffffff16565b90506003600081548092919060010191905055506040518060e0016040528060035481526020013373ffffffffffffffffffffffffffffffffffffffff1681526020018873ffffffffffffffffffffffffffffffffffffffff16815260200161207d60005461206f8686612b4d90919063ffffffff16565b612b8790919063ffffffff16565b81526020018673ffffffffffffffffffffffffffffffffffffffff168152602001838152602001428152506005600060035481526020019081526020016000206000820151816000015560208201518160010160006101000a81548173ffffffffffffffffffffffffffffffffffffffff021916908373ffffffffffffffffffffffffffffffffffffffff16021790555060408201518160020160006101000a81548173ffffffffffffffffffffffffffffffffffffffff021916908373ffffffffffffffffffffffffffffffffffffffff1602179055506060820151816003015560808201518160040160006101000a81548173ffffffffffffffffffffffffffffffffffffffff021916908373ffffffffffffffffffffffffffffffffffffffff16021790555060a0820151816005015560c082015181600601559050507f9d33853d43e3607b4cc01fdc78338ff2dca6fef7db9232dae6d3eb55fbc3b109600354338961220a6000546121fc8888612b4d90919063ffffffff16565b612b8790919063ffffffff16565b898742604051808881526020018773ffffffffffffffffffffffffffffffffffffffff1681526020018673ffffffffffffffffffffffffffffffffffffffff1681526020018581526020018473ffffffffffffffffffffffffffffffffffffffff16815260200183815260200182815260200197505050505050505060405180910390a150505b505b50505050565b600073ffffffffffffffffffffffffffffffffffffffff168273ffffffffffffffffffffffffffffffffffffffff16141561233c576040517f08c379a00000000000000000000000000000000000000000000000000000000081526004018080602001828103825260158152602001807f546f6b656e2063616e6e6f74206265204574686572000000000000000000000081525060200191505060405180910390fd5b80600460008473ffffffffffffffffffffffffffffffffffffffff1673ffffffffffffffffffffffffffffffffffffffff16815260200190815260200160002060003373ffffffffffffffffffffffffffffffffffffffff1673ffffffffffffffffffffffffffffffffffffffff16815260200190815260200160002054101561242e576040517f08c379a00000000000000000000000000000000000000000000000000000000081526004018080602001828103825260128152602001807f496e73756666696369656e742066756e6473000000000000000000000000000081525060200191505060405180910390fd5b6124bd81600460008573ffffffffffffffffffffffffffffffffffffffff1673ffffffffffffffffffffffffffffffffffffffff16815260200190815260200160002060003373ffffffffffffffffffffffffffffffffffffffff1673ffffffffffffffffffffffffffffffffffffffff16815260200190815260200160002054612bad90919063ffffffff16565b600460008473ffffffffffffffffffffffffffffffffffffffff1673ffffffffffffffffffffffffffffffffffffffff16815260200190815260200160002060003373ffffffffffffffffffffffffffffffffffffffff1673ffffffffffffffffffffffffffffffffffffffff168152602001908152602001600020819055508173ffffffffffffffffffffffffffffffffffffffff1663a9059cbb33836040518363ffffffff1660e01b8152600401808373ffffffffffffffffffffffffffffffffffffffff16815260200182815260200192505050602060405180830381600087803b1580156125ae57600080fd5b505af11580156125c2573d6000803e3d6000fd5b505050506040513d60208110156125d857600080fd5b810190808051906020019092919050505061265b576040517f08c379a000000000000000000000000000000000000000000000000000000000815260040180806020018281038252601f8152602001807f63616c6c206f66207472616e7366657220646f6573206e6f74206d617463680081525060200191505060405180910390fd5b7ff341246adaac6f497bc2a656f546ab9e182111d630394f0c57c710a59a2cb567823383600460008773ffffffffffffffffffffffffffffffffffffffff1673ffffffffffffffffffffffffffffffffffffffff16815260200190815260200160002060003373ffffffffffffffffffffffffffffffffffffffff1673ffffffffffffffffffffffffffffffffffffffff16815260200190815260200160002054604051808573ffffffffffffffffffffffffffffffffffffffff1681526020018473ffffffffffffffffffffffffffffffffffffffff16815260200183815260200182815260200194505050505060405180910390a15050565b60056020528060005260406000206000915090508060000154908060010160009054906101000a900473ffffffffffffffffffffffffffffffffffffffff16908060020160009054906101000a900473ffffffffffffffffffffffffffffffffffffffff16908060030154908060040160009054906101000a900473ffffffffffffffffffffffffffffffffffffffff16908060050154908060060154905087565b6000807fffffffffffffffffffffffffffffffffffffffffffffffffffffffffffffffff9050600080600190505b600354811161294d576006600082815260200190815260200160002060009054906101000a900460ff161561285a57612940565b6007600082815260200190815260200160002060009054906101000a900460ff161561288557612940565b6000600560008381526020019081526020016000209050600073ffffffffffffffffffffffffffffffffffffffff168160040160009054906101000a900473ffffffffffffffffffffffffffffffffffffffff1673ffffffffffffffffffffffffffffffffffffffff1614156128fb5750612940565b600061292c826005015461291e6000548560030154612b4d90919063ffffffff16565b612b8790919063ffffffff16565b90508085111561293d578094508293505b50505b8080600101915050612826565b50809250505090565b60066020528060005260406000206000915054906101000a900460ff1681565b60008073ffffffffffffffffffffffffffffffffffffffff168273ffffffffffffffffffffffffffffffffffffffff1614156129b157600190505b600060056000868152602001908152602001600020905081612a485760006129fe82600301546129f06000548560050154612b4d90919063ffffffff16565b612b8790919063ffffffff16565b9050848260030154038260030181905550612a3a600054612a2c846003015484612b4d90919063ffffffff16565b612b8790919063ffffffff16565b826005018190555050612abf565b6000612a798260050154612a6b6000548560030154612b4d90919063ffffffff16565b612b8790919063ffffffff16565b9050848260050154038260050181905550612ab5600054612aa7846005015484612b4d90919063ffffffff16565b612b8790919063ffffffff16565b8260030181905550505b5050505050565b6000600460008473ffffffffffffffffffffffffffffffffffffffff1673ffffffffffffffffffffffffffffffffffffffff16815260200190815260200160002060008373ffffffffffffffffffffffffffffffffffffffff1673ffffffffffffffffffffffffffffffffffffffff16815260200190815260200160002054905092915050565b600080831415612b605760009050612b81565b6000828402905082848281612b7157fe5b0414612b7c57600080fd5b809150505b92915050565b6000808211612b9557600080fd5b6000828481612ba057fe5b0490508091505092915050565b600082821115612bbc57600080fd5b600082840390508091505092915050565b600080828401905083811015612be257600080fd5b8091505092915050565b6000612c8f612c048286612bcd90919063ffffffff16565b600460008873ffffffffffffffffffffffffffffffffffffffff1673ffffffffffffffffffffffffffffffffffffffff16815260200190815260200160002060003373ffffffffffffffffffffffffffffffffffffffff1673ffffffffffffffffffffffffffffffffffffffff16815260200190815260200160002054612bad90919063ffffffff16565b600460008773ffffffffffffffffffffffffffffffffffffffff1673ffffffffffffffffffffffffffffffffffffffff16815260200190815260200160002060003373ffffffffffffffffffffffffffffffffffffffff1673ffffffffffffffffffffffffffffffffffffffff16815260200190815260200160002081905550612d9e84600460008873ffffffffffffffffffffffffffffffffffffffff1673ffffffffffffffffffffffffffffffffffffffff16815260200190815260200160002060008973ffffffffffffffffffffffffffffffffffffffff1673ffffffffffffffffffffffffffffffffffffffff16815260200190815260200160002054612bcd90919063ffffffff16565b600460008773ffffffffffffffffffffffffffffffffffffffff1673ffffffffffffffffffffffffffffffffffffffff16815260200190815260200160002060008873ffffffffffffffffffffffffffffffffffffffff1673ffffffffffffffffffffffffffffffffffffffff16815260200190815260200160002081905550612ecf81600460008873ffffffffffffffffffffffffffffffffffffffff1673ffffffffffffffffffffffffffffffffffffffff1681526020019081526020016000206000600160009054906101000a900473ffffffffffffffffffffffffffffffffffffffff1673ffffffffffffffffffffffffffffffffffffffff1673ffffffffffffffffffffffffffffffffffffffff16815260200190815260200160002054612bcd90919063ffffffff16565b600460008773ffffffffffffffffffffffffffffffffffffffff1673ffffffffffffffffffffffffffffffffffffffff1681526020019081526020016000206000600160009054906101000a900473ffffffffffffffffffffffffffffffffffffffff1673ffffffffffffffffffffffffffffffffffffffff1673ffffffffffffffffffffffffffffffffffffffff1681526020019081526020016000208190555061300082600460008673ffffffffffffffffffffffffffffffffffffffff1673ffffffffffffffffffffffffffffffffffffffff16815260200190815260200160002060008973ffffffffffffffffffffffffffffffffffffffff1673ffffffffffffffffffffffffffffffffffffffff16815260200190815260200160002054612bad90919063ffffffff16565b600460008573ffffffffffffffffffffffffffffffffffffffff1673ffffffffffffffffffffffffffffffffffffffff16815260200190815260200160002060008873ffffffffffffffffffffffffffffffffffffffff1673ffffffffffffffffffffffffffffffffffffffff1681526020019081526020016000208190555061310f82600460008673ffffffffffffffffffffffffffffffffffffffff1673ffffffffffffffffffffffffffffffffffffffff16815260200190815260200160002060003373ffffffffffffffffffffffffffffffffffffffff1673ffffffffffffffffffffffffffffffffffffffff16815260200190815260200160002054612bcd90919063ffffffff16565b600460008573ffffffffffffffffffffffffffffffffffffffff1673ffffffffffffffffffffffffffffffffffffffff16815260200190815260200160002060003373ffffffffffffffffffffffffffffffffffffffff1673ffffffffffffffffffffffffffffffffffffffff168152602001908152602001600020819055507f0dddf4182dc0fc1a311cb75f049c97403c6b8a99cf6b2229a36e7c526acb3f818787878787873342604051808981526020018873ffffffffffffffffffffffffffffffffffffffff1681526020018773ffffffffffffffffffffffffffffffffffffffff1681526020018681526020018573ffffffffffffffffffffffffffffffffffffffff1681526020018481526020018373ffffffffffffffffffffffffffffffffffffffff1681526020018281526020019850505050505050505060405180910390a15050505050505056fe63616c6c206f66207472616e7366657246726f6d20646f6573206e6f74206d6174636843757272656e74207573657220646f6573206e6f74206d61746368206f7264657227732061646472657373a26469706673582212201b3728fbd733be0d8b72e4dcb555de719defdb5f6298cf00749a759eced1f0d164736f6c63430007050033",
  "immutableReferences": {},
  "source": "// SPDX-License-Identifier: SimPL-2.0\r\npragma solidity >=0.7.4 <0.8.0;\r\n\r\nimport './Token.sol';\r\n\r\ncontract Exchange {\r\n\r\n    using SafeMath for uint;\r\n    using SafeMath for uint256;\r\n    uint256 public decimals = 10**8;\r\n\r\n    // Variables\r\n    address public feeAccount;\r\n    uint256 public feePercent;\r\n    uint256 public orderCount;\r\n    address constant ETHER = address(0);\r\n\r\n    mapping(address => mapping(address => uint256)) public tokens;\r\n    mapping(uint256 => _Order) public orders;\r\n    mapping(uint256 => bool) public orderCancelled;\r\n    mapping(uint256 => bool) public orderFilled;\r\n\r\n    // event LOG_PRICE(uint256 ret);\r\n    event LOG_RETURN(uint256 ret);\r\n    // Events\r\n    event Deposit(address token, address user, uint256 amount, uint256 balance);\r\n    event Withdraw(address token, address user, uint256 amount, uint256 balance);\r\n    event Order(\r\n        uint256 id,\r\n        address user,\r\n        address tokenGet,\r\n        uint256 amountGet,\r\n        address tokenGive,\r\n        uint256 amountGive,\r\n        uint256 timestamp\r\n    );\r\n    event Cancel(\r\n        uint256 id,\r\n        address user,\r\n        address tokenGet,\r\n        uint256 amountGet,\r\n        address tokenGive,\r\n        uint256 amountGive,\r\n        uint256 timestamp\r\n    );\r\n    event Trade(\r\n        uint256 id,\r\n        address user,\r\n        address tokenGet,\r\n        uint256 amountGet,\r\n        address tokenGive,\r\n        uint256 amountGive,\r\n        address userFill,\r\n        uint256 timestamp\r\n    );\r\n\r\n    // Structs\r\n    struct _Order {\r\n        uint256 id;\r\n        address user;\r\n        address tokenGet;\r\n        uint256 amountGet;\r\n        address tokenGive;\r\n        uint256 amountGive;\r\n        uint256 timestamp;\r\n    }\r\n\r\n    constructor(address _feeAccount, uint256 _feePercent) {\r\n        feeAccount = _feeAccount;\r\n        feePercent = _feePercent;\r\n    }\r\n\r\n    // Fallback: reverts if Ether is sent to this smart contract by mistake\r\n    fallback() external payable{\r\n        revert();\r\n    }\r\n\r\n    receive() external payable{}\r\n\r\n    function depositEther() public payable {\r\n        tokens[ETHER][msg.sender] = tokens[ETHER][msg.sender].add(msg.value);\r\n        emit Deposit(ETHER, msg.sender, msg.value, tokens[ETHER][msg.sender]);\r\n    }\r\n\r\n    function withdrawEther(uint _amount) public payable {\r\n        require(tokens[ETHER][msg.sender] >= _amount, 'Insufficient funds');\r\n        tokens[ETHER][msg.sender] = tokens[ETHER][msg.sender].sub(_amount);\r\n        msg.sender.transfer(_amount);\r\n        emit Withdraw(ETHER, msg.sender, _amount, tokens[ETHER][msg.sender]);\r\n    }\r\n\r\n    function depositToken(address _token, uint _amount) public {\r\n        require(_token != ETHER, 'Token cannot be Ether');\r\n        require(Token(_token).transferFrom(msg.sender, address(this), _amount), 'call of transferFrom does not match');\r\n        tokens[_token][msg.sender] = tokens[_token][msg.sender].add(_amount);\r\n        emit Deposit(_token, msg.sender, _amount, tokens[_token][msg.sender]);\r\n    }\r\n\r\n    function withdrawToken(address _token, uint256 _amount) public {\r\n        require(_token != ETHER, 'Token cannot be Ether');\r\n        require(tokens[_token][msg.sender] >= _amount, 'Insufficient funds');\r\n        tokens[_token][msg.sender] = tokens[_token][msg.sender].sub(_amount);\r\n        require(Token(_token).transfer(msg.sender, _amount), 'call of transfer does not match');\r\n        emit Withdraw(_token, msg.sender, _amount, tokens[_token][msg.sender]);\r\n    }\r\n\r\n    function balanceOf(address _token, address _user) public view returns(uint256) {\r\n        return tokens[_token][_user];\r\n    }\r\n\r\n    function makeOrder(address _tokenGet, uint256 _amountGet, address _tokenGive, uint256 _amountGive) public {\r\n        bool bs_type = false;\r\n        if (_tokenGive == 0x0000000000000000000000000000000000000000){//buy token\r\n            bs_type = true;\r\n        }\r\n        if (bs_type){\r\n            uint256 surplus = _amountGet;\r\n            surplus = doMatchs(_amountGet, _tokenGive,_amountGive);\r\n            if (surplus == 0) return;\r\n            uint256 price = _amountGive.mul(decimals).div(_amountGet);\r\n\r\n            orderCount++;\r\n            orders[orderCount] = _Order(orderCount, msg.sender, _tokenGet, surplus, _tokenGive, price.mul(surplus).div(decimals), block.timestamp);\r\n            emit Order(orderCount, msg.sender, _tokenGet, surplus, _tokenGive, price.mul(surplus).div(decimals), block.timestamp);\r\n        }\r\n        else {\r\n            uint256 surplus = _amountGive;\r\n            surplus = doMatchs(_amountGet, _tokenGive,_amountGive);\r\n            if (surplus == 0) return;\r\n            uint256 price = _amountGet.mul(decimals).div(_amountGive);\r\n\r\n            orderCount++;\r\n            orders[orderCount] = _Order(orderCount, msg.sender, _tokenGet, price.mul(surplus).div(decimals), _tokenGive, surplus, block.timestamp);\r\n            emit Order(orderCount, msg.sender, _tokenGet, price.mul(surplus).div(decimals), _tokenGive, surplus, block.timestamp);\r\n        }\r\n\r\n        // orderCount++;\r\n        // orders[orderCount] = _Order(orderCount, msg.sender, _tokenGet, _amountGet, _tokenGive, _amountGive, block.timestamp);\r\n        // emit Order(orderCount, msg.sender, _tokenGet, _amountGet, _tokenGive, _amountGive, block.timestamp);\r\n    }\r\n\r\n    function doMatchs(uint256 _amountGet, address _tokenGive, uint256 _amountGive) public returns(uint256){\r\n        bool bs_type = false;\r\n        if (_tokenGive == 0x0000000000000000000000000000000000000000){//buy token\r\n            bs_type = true;\r\n        }\r\n        uint256 amountGet = _amountGet;\r\n        uint256 amountGive = _amountGive;\r\n\r\n        if (bs_type){\r\n            uint256 price = _amountGive.mul(decimals).div(_amountGet);\r\n            while (amountGet > 0){\r\n                uint256 qty = doMatch(amountGet,_tokenGive,price.mul(amountGet).div(decimals));\r\n                if (qty == 0) break;\r\n                amountGet = amountGet.sub(qty);  \r\n            }\r\n            require(amountGet >= 0);\r\n            return amountGet;\r\n        }\r\n        else {\r\n            uint256 price = _amountGet.mul(decimals).div(_amountGive);\r\n            while (amountGive > 0){\r\n                uint256 qty = doMatch(price.mul(amountGive).div(decimals),_tokenGive,amountGive);\r\n                if (qty == 0) break;\r\n                amountGive = amountGive.sub(qty);  \r\n            }\r\n            require(amountGive >= 0);\r\n            return amountGive;\r\n        }\r\n\r\n        // if (amountGet > 0){ // \r\n        //     makeOrder(_tokenGet,amountGet,_tokenGive,price.mul(amountGet).div(decimals));\r\n        // }\r\n    }\r\n    function doMatch(uint256 _amountGet, address _tokenGive, uint256 _amountGive) public returns(uint256){\r\n        bool bs_type = false;\r\n        if (_tokenGive == 0x0000000000000000000000000000000000000000){//buy token\r\n            bs_type = true;\r\n        }\r\n\r\n        if (bs_type) {\r\n            uint256 price = _amountGive.mul(decimals).div(_amountGet);\r\n            uint256 idx = _minPriceIdx();\r\n            if (idx == 0) return 0;\r\n            _Order storage _order = orders[idx];\r\n\r\n            uint256 oldPrice = _order.amountGet.mul(decimals).div(_order.amountGive);\r\n\r\n            if (price >= oldPrice) {\r\n                if (_amountGet >= _order.amountGive) {\r\n                    fillOrder(idx);\r\n                    return _order.amountGive;\r\n                }\r\n                else {\r\n                    splitOrder(idx,_amountGet,_tokenGive);\r\n                    makeOrder(_order.tokenGet, oldPrice.mul(_amountGet).div(decimals), _order.tokenGive, _amountGet);\r\n                    fillOrder(orderCount); \r\n                    return _amountGet;\r\n                }\r\n            }\r\n            else return 0;\r\n        }\r\n        else{\r\n            uint256 price = _amountGet.mul(decimals).div(_amountGive);\r\n            uint256 idx = _maxPriceIdx();\r\n            if (idx == 0) return 0;\r\n            _Order storage _order = orders[idx];\r\n\r\n            uint256 oldPrice = _order.amountGive.mul(decimals).div(_order.amountGet);\r\n            \r\n            if (price <= oldPrice) {\r\n                if (_amountGive >= _order.amountGet) {\r\n                    fillOrder(idx);                    \r\n                    return _order.amountGet;\r\n                }\r\n                else {\r\n                    splitOrder(idx,_amountGive,_tokenGive);\r\n                    makeOrder(_order.tokenGet, _amountGive, _order.tokenGive, price.mul(_amountGet).div(decimals));\r\n                    fillOrder(orderCount); \r\n                    return _amountGive;\r\n                }\r\n            }\r\n            else return 0;\r\n        }\r\n\r\n    }\r\n\r\n    function splitOrder(uint256 _id, uint256 count, address addr) public{\r\n         bool bs_type = false;\r\n\r\n        if (addr == 0x0000000000000000000000000000000000000000){//buy token\r\n            bs_type = true;\r\n        }\r\n\r\n        _Order storage _order = orders[_id];\r\n\r\n        // require(count < _order.amountGet,'Can not split order by count');\r\n        if (!bs_type) {\r\n            uint256 price = _order.amountGive.mul(decimals).div(_order.amountGet);\r\n            _order.amountGet = _order.amountGet - count;\r\n            _order.amountGive = price.mul(_order.amountGet).div(decimals);\r\n        }\r\n        else {\r\n            uint256 price = _order.amountGet.mul(decimals).div(_order.amountGive);\r\n            _order.amountGive = _order.amountGive - count;\r\n            _order.amountGet = price.mul(_order.amountGive).div(decimals);\r\n        }\r\n        // emit Order(_order.id, _order.user, _order.tokenGet, _order.amountGet, _order.tokenGive, _order.amountGive, _order.timestamp);\r\n    }\r\n    // find max price from buy orders, and return order index\r\n    function _maxPriceIdx() public view returns(uint256){\r\n        uint256 max = 0;\r\n        uint256 idx = 0;\r\n        for (uint256 i = 1; i <= orderCount; i++){\r\n            if (orderCancelled[i]) continue;\r\n            if (orderFilled[i]) continue;\r\n            _Order storage _order = orders[i];\r\n            if (_order.tokenGive != 0x0000000000000000000000000000000000000000) continue;\r\n            uint256 _max = _order.amountGive.mul(decimals).div(_order.amountGet);\r\n            if (max < _max) {\r\n                max = _max;\r\n                idx = i;\r\n            }\r\n        }\r\n        // emit LOG_RETURN(idx);\r\n        return idx;\r\n    }\r\n\r\n    function _minPriceIdx() public view returns(uint256){\r\n        uint256 min = 2**256 - 1;\r\n        uint256 idx = 0;\r\n        for (uint256 i = 1; i <= orderCount; i++){\r\n            if (orderCancelled[i]) continue;\r\n            if (orderFilled[i]) continue;\r\n            _Order storage _order = orders[i];\r\n            if (_order.tokenGive == 0x0000000000000000000000000000000000000000) continue;\r\n            uint256 _min = _order.amountGet.mul(decimals).div(_order.amountGive);\r\n            if (min > _min) {\r\n                min = _min;\r\n                idx = i;\r\n            }\r\n        }\r\n        // emit LOG_RETURN(idx);\r\n        return idx;\r\n    }\r\n\r\n    function cancelOrder(uint256 _id) public {\r\n        _Order storage _order = orders[_id];\r\n        require(address(_order.user) == msg.sender, \"Current user does not match order's address\");\r\n        require(_order.id == _id, 'Order does not exist');\r\n        orderCancelled[_id] = true;\r\n        emit Cancel(_order.id, msg.sender, _order.tokenGet, _order.amountGet, _order.tokenGive, _order.amountGive, block.timestamp);\r\n    }\r\n\r\n    function fillOrder(uint256 _id) public {\r\n        require(_id > 0 && _id <= orderCount, 'Order does not exist');\r\n        require(!orderFilled[_id], 'Order is already filled');\r\n        require(!orderCancelled[_id], 'Order is already cancelled');\r\n        _Order storage _order = orders[_id];\r\n        _trade(_order.id, _order.user, _order.tokenGet, _order.amountGet, _order.tokenGive, _order.amountGive);\r\n        orderFilled[_order.id] = true;\r\n    }\r\n\r\n    function _trade(\r\n        uint256 _orderId,\r\n        address _user,\r\n        address _tokenGet,\r\n        uint256 _amountGet,\r\n        address _tokenGive,\r\n        uint256 _amountGive)\r\n        internal {\r\n            // Fee paid by the user that fills the order \r\n            // uint256 _feeAmount = _amountGive.mul(feePercent).div(100);\r\n            uint256 _feeAmount = 0;\r\n            tokens[_tokenGet][msg.sender] = tokens[_tokenGet][msg.sender].sub(_amountGet.add(_feeAmount));\r\n            tokens[_tokenGet][_user] = tokens[_tokenGet][_user].add(_amountGet);\r\n            tokens[_tokenGet][feeAccount] = tokens[_tokenGet][feeAccount].add(_feeAmount);\r\n            tokens[_tokenGive][_user] = tokens[_tokenGive][_user].sub(_amountGive);\r\n            tokens[_tokenGive][msg.sender] = tokens[_tokenGive][msg.sender].add(_amountGive);\r\n            emit Trade(_orderId, _user, _tokenGet, _amountGet, _tokenGive, _amountGive, msg.sender, block.timestamp);\r\n        }\r\n}\r\n",
  "sourcePath": "/home/frank/git/frank-gh/Decentralized-Exchange/src/contracts/Exchange.sol",
  "compiler": {
    "name": "solc",
    "version": "0.7.5+commit.eb77ed08.Emscripten.clang"
  },
  "schemaVersion": "3.3.1",
  "updatedAt": "2020-12-22T12:53:46.945Z",
  "networkType": "ethereum",
  "devdoc": {
    "kind": "dev",
    "methods": {},
    "version": 1
  },
  "userdoc": {
    "kind": "user",
    "methods": {},
    "version": 1
  }
}