{
  "contractName": "Exchange",
  "abi": [
    {
      "inputs": [
        {
          "internalType": "address",
          "name": "_feeAccount",
          "type": "address"
        },
        {
          "internalType": "uint256",
          "name": "_feePercent",
          "type": "uint256"
        }
      ],
      "stateMutability": "nonpayable",
      "type": "constructor"
    },
    {
      "anonymous": false,
      "inputs": [
        {
          "indexed": false,
          "internalType": "uint256",
          "name": "id",
          "type": "uint256"
        },
        {
          "indexed": false,
          "internalType": "address",
          "name": "user",
          "type": "address"
        },
        {
          "indexed": false,
          "internalType": "address",
          "name": "tokenGet",
          "type": "address"
        },
        {
          "indexed": false,
          "internalType": "uint256",
          "name": "amountGet",
          "type": "uint256"
        },
        {
          "indexed": false,
          "internalType": "address",
          "name": "tokenGive",
          "type": "address"
        },
        {
          "indexed": false,
          "internalType": "uint256",
          "name": "amountGive",
          "type": "uint256"
        },
        {
          "indexed": false,
          "internalType": "uint256",
          "name": "timestamp",
          "type": "uint256"
        }
      ],
      "name": "Cancel",
      "type": "event"
    },
    {
      "anonymous": false,
      "inputs": [
        {
          "indexed": false,
          "internalType": "address",
          "name": "token",
          "type": "address"
        },
        {
          "indexed": false,
          "internalType": "address",
          "name": "user",
          "type": "address"
        },
        {
          "indexed": false,
          "internalType": "uint256",
          "name": "amount",
          "type": "uint256"
        },
        {
          "indexed": false,
          "internalType": "uint256",
          "name": "balance",
          "type": "uint256"
        }
      ],
      "name": "Deposit",
      "type": "event"
    },
    {
      "anonymous": false,
      "inputs": [
        {
          "indexed": false,
          "internalType": "uint256",
          "name": "ret",
          "type": "uint256"
        }
      ],
      "name": "LOG_RETURN",
      "type": "event"
    },
    {
      "anonymous": false,
      "inputs": [
        {
          "indexed": false,
          "internalType": "uint256",
          "name": "id",
          "type": "uint256"
        },
        {
          "indexed": false,
          "internalType": "address",
          "name": "user",
          "type": "address"
        },
        {
          "indexed": false,
          "internalType": "address",
          "name": "tokenGet",
          "type": "address"
        },
        {
          "indexed": false,
          "internalType": "uint256",
          "name": "amountGet",
          "type": "uint256"
        },
        {
          "indexed": false,
          "internalType": "address",
          "name": "tokenGive",
          "type": "address"
        },
        {
          "indexed": false,
          "internalType": "uint256",
          "name": "amountGive",
          "type": "uint256"
        },
        {
          "indexed": false,
          "internalType": "uint256",
          "name": "timestamp",
          "type": "uint256"
        }
      ],
      "name": "Order",
      "type": "event"
    },
    {
      "anonymous": false,
      "inputs": [
        {
          "indexed": false,
          "internalType": "uint256",
          "name": "id",
          "type": "uint256"
        },
        {
          "indexed": false,
          "internalType": "address",
          "name": "user",
          "type": "address"
        },
        {
          "indexed": false,
          "internalType": "address",
          "name": "tokenGet",
          "type": "address"
        },
        {
          "indexed": false,
          "internalType": "uint256",
          "name": "amountGet",
          "type": "uint256"
        },
        {
          "indexed": false,
          "internalType": "address",
          "name": "tokenGive",
          "type": "address"
        },
        {
          "indexed": false,
          "internalType": "uint256",
          "name": "amountGive",
          "type": "uint256"
        },
        {
          "indexed": false,
          "internalType": "address",
          "name": "userFill",
          "type": "address"
        },
        {
          "indexed": false,
          "internalType": "uint256",
          "name": "timestamp",
          "type": "uint256"
        }
      ],
      "name": "Trade",
      "type": "event"
    },
    {
      "anonymous": false,
      "inputs": [
        {
          "indexed": false,
          "internalType": "address",
          "name": "token",
          "type": "address"
        },
        {
          "indexed": false,
          "internalType": "address",
          "name": "user",
          "type": "address"
        },
        {
          "indexed": false,
          "internalType": "uint256",
          "name": "amount",
          "type": "uint256"
        },
        {
          "indexed": false,
          "internalType": "uint256",
          "name": "balance",
          "type": "uint256"
        }
      ],
      "name": "Withdraw",
      "type": "event"
    },
    {
      "stateMutability": "nonpayable",
      "type": "fallback"
    },
    {
      "inputs": [],
      "name": "decimals",
      "outputs": [
        {
          "internalType": "uint256",
          "name": "",
          "type": "uint256"
        }
      ],
      "stateMutability": "view",
      "type": "function",
      "constant": true
    },
    {
      "inputs": [],
      "name": "feeAccount",
      "outputs": [
        {
          "internalType": "address",
          "name": "",
          "type": "address"
        }
      ],
      "stateMutability": "view",
      "type": "function",
      "constant": true
    },
    {
      "inputs": [],
      "name": "feePercent",
      "outputs": [
        {
          "internalType": "uint256",
          "name": "",
          "type": "uint256"
        }
      ],
      "stateMutability": "view",
      "type": "function",
      "constant": true
    },
    {
      "inputs": [
        {
          "internalType": "uint256",
          "name": "",
          "type": "uint256"
        }
      ],
      "name": "orderCancelled",
      "outputs": [
        {
          "internalType": "bool",
          "name": "",
          "type": "bool"
        }
      ],
      "stateMutability": "view",
      "type": "function",
      "constant": true
    },
    {
      "inputs": [],
      "name": "orderCount",
      "outputs": [
        {
          "internalType": "uint256",
          "name": "",
          "type": "uint256"
        }
      ],
      "stateMutability": "view",
      "type": "function",
      "constant": true
    },
    {
      "inputs": [
        {
          "internalType": "uint256",
          "name": "",
          "type": "uint256"
        }
      ],
      "name": "orderFilled",
      "outputs": [
        {
          "internalType": "bool",
          "name": "",
          "type": "bool"
        }
      ],
      "stateMutability": "view",
      "type": "function",
      "constant": true
    },
    {
      "inputs": [
        {
          "internalType": "uint256",
          "name": "",
          "type": "uint256"
        }
      ],
      "name": "orders",
      "outputs": [
        {
          "internalType": "uint256",
          "name": "id",
          "type": "uint256"
        },
        {
          "internalType": "address",
          "name": "user",
          "type": "address"
        },
        {
          "internalType": "address",
          "name": "tokenGet",
          "type": "address"
        },
        {
          "internalType": "uint256",
          "name": "amountGet",
          "type": "uint256"
        },
        {
          "internalType": "address",
          "name": "tokenGive",
          "type": "address"
        },
        {
          "internalType": "uint256",
          "name": "amountGive",
          "type": "uint256"
        },
        {
          "internalType": "uint256",
          "name": "timestamp",
          "type": "uint256"
        }
      ],
      "stateMutability": "view",
      "type": "function",
      "constant": true
    },
    {
      "inputs": [
        {
          "internalType": "address",
          "name": "",
          "type": "address"
        },
        {
          "internalType": "address",
          "name": "",
          "type": "address"
        }
      ],
      "name": "tokens",
      "outputs": [
        {
          "internalType": "uint256",
          "name": "",
          "type": "uint256"
        }
      ],
      "stateMutability": "view",
      "type": "function",
      "constant": true
    },
    {
      "stateMutability": "payable",
      "type": "receive",
      "payable": true
    },
    {
      "inputs": [],
      "name": "depositEther",
      "outputs": [],
      "stateMutability": "payable",
      "type": "function",
      "payable": true
    },
    {
      "inputs": [
        {
          "internalType": "uint256",
          "name": "_amount",
          "type": "uint256"
        }
      ],
      "name": "withdrawEther",
      "outputs": [],
      "stateMutability": "payable",
      "type": "function",
      "payable": true
    },
    {
      "inputs": [
        {
          "internalType": "address",
          "name": "_token",
          "type": "address"
        },
        {
          "internalType": "uint256",
          "name": "_amount",
          "type": "uint256"
        }
      ],
      "name": "depositToken",
      "outputs": [],
      "stateMutability": "nonpayable",
      "type": "function"
    },
    {
      "inputs": [
        {
          "internalType": "address",
          "name": "_token",
          "type": "address"
        },
        {
          "internalType": "uint256",
          "name": "_amount",
          "type": "uint256"
        }
      ],
      "name": "withdrawToken",
      "outputs": [],
      "stateMutability": "nonpayable",
      "type": "function"
    },
    {
      "inputs": [
        {
          "internalType": "address",
          "name": "_token",
          "type": "address"
        },
        {
          "internalType": "address",
          "name": "_user",
          "type": "address"
        }
      ],
      "name": "balanceOf",
      "outputs": [
        {
          "internalType": "uint256",
          "name": "",
          "type": "uint256"
        }
      ],
      "stateMutability": "view",
      "type": "function",
      "constant": true
    },
    {
      "inputs": [
        {
          "internalType": "address",
          "name": "_tokenGet",
          "type": "address"
        },
        {
          "internalType": "uint256",
          "name": "_amountGet",
          "type": "uint256"
        },
        {
          "internalType": "address",
          "name": "_tokenGive",
          "type": "address"
        },
        {
          "internalType": "uint256",
          "name": "_amountGive",
          "type": "uint256"
        }
      ],
      "name": "makeOrder",
      "outputs": [],
      "stateMutability": "nonpayable",
      "type": "function"
    },
    {
      "inputs": [
        {
          "internalType": "uint256",
          "name": "_amountGet",
          "type": "uint256"
        },
        {
          "internalType": "address",
          "name": "_tokenGive",
          "type": "address"
        },
        {
          "internalType": "uint256",
          "name": "_amountGive",
          "type": "uint256"
        }
      ],
      "name": "doMatchs",
      "outputs": [
        {
          "internalType": "uint256",
          "name": "",
          "type": "uint256"
        }
      ],
      "stateMutability": "nonpayable",
      "type": "function"
    },
    {
      "inputs": [
        {
          "internalType": "uint256",
          "name": "_amountGet",
          "type": "uint256"
        },
        {
          "internalType": "address",
          "name": "_tokenGive",
          "type": "address"
        },
        {
          "internalType": "uint256",
          "name": "_amountGive",
          "type": "uint256"
        }
      ],
      "name": "doMatch",
      "outputs": [
        {
          "internalType": "uint256",
          "name": "",
          "type": "uint256"
        }
      ],
      "stateMutability": "nonpayable",
      "type": "function"
    },
    {
      "inputs": [
        {
          "internalType": "uint256",
          "name": "_id",
          "type": "uint256"
        },
        {
          "internalType": "uint256",
          "name": "count",
          "type": "uint256"
        },
        {
          "internalType": "address",
          "name": "addr",
          "type": "address"
        }
      ],
      "name": "splitOrder",
      "outputs": [],
      "stateMutability": "nonpayable",
      "type": "function"
    },
    {
      "inputs": [],
      "name": "_maxPriceIdx",
      "outputs": [
        {
          "internalType": "uint256",
          "name": "",
          "type": "uint256"
        }
      ],
      "stateMutability": "view",
      "type": "function",
      "constant": true
    },
    {
      "inputs": [],
      "name": "_minPriceIdx",
      "outputs": [
        {
          "internalType": "uint256",
          "name": "",
          "type": "uint256"
        }
      ],
      "stateMutability": "view",
      "type": "function",
      "constant": true
    },
    {
      "inputs": [
        {
          "internalType": "uint256",
          "name": "_id",
          "type": "uint256"
        }
      ],
      "name": "cancelOrder",
      "outputs": [],
      "stateMutability": "nonpayable",
      "type": "function"
    },
    {
      "inputs": [
        {
          "internalType": "uint256",
          "name": "_id",
          "type": "uint256"
        }
      ],
      "name": "fillOrder",
      "outputs": [],
      "stateMutability": "nonpayable",
      "type": "function"
    }
  ],
  "bytecode": "0x60806040526305f5e10060005534801561001857600080fd5b506040516133c93803806133c98339818101604052604081101561003b57600080fd5b81019080805190602001909291908051906020019092919050505081600160006101000a81548173ffffffffffffffffffffffffffffffffffffffff021916908373ffffffffffffffffffffffffffffffffffffffff16021790555080600281905550505061331a806100af6000396000f3fe60806040526004361061012e5760003560e01c80637fd6f15c116100ab5780639e281a981161006f5780639e281a981461058a578063a85c38ef146105e5578063d8079680146106a0578063e9c18966146106cb578063efc931021461071c578063f7888aec1461078157610135565b80637fd6f15c1461042c578063853e352b146104575780638b0b84291461048257806398ea5fca146104fb5780639a5c90aa1461050557610135565b80634a93e0da116100f25780634a93e0da1461029f578063508493bc146102f0578063514fcac71461037557806365e17c9d146103b057806367b830ad146103f157610135565b80632453ffa8146101475780632becefbd14610172578063313ce567146101eb578063338b5dea146102165780633bed33ce1461027157610135565b3661013557005b34801561014157600080fd5b50600080fd5b34801561015357600080fd5b5061015c610806565b6040518082815260200191505060405180910390f35b34801561017e57600080fd5b506101d56004803603606081101561019557600080fd5b8101908080359060200190929190803573ffffffffffffffffffffffffffffffffffffffff1690602001909291908035906020019092919050505061080c565b6040518082815260200191505060405180910390f35b3480156101f757600080fd5b506102006109bc565b6040518082815260200191505060405180910390f35b34801561022257600080fd5b5061026f6004803603604081101561023957600080fd5b81019080803573ffffffffffffffffffffffffffffffffffffffff169060200190929190803590602001909291905050506109c2565b005b61029d6004803603602081101561028757600080fd5b8101908080359060200190929190505050610d8e565b005b3480156102ab57600080fd5b506102d8600480360360208110156102c257600080fd5b81019080803590602001909291905050506110d1565b60405180821515815260200191505060405180910390f35b3480156102fc57600080fd5b5061035f6004803603604081101561031357600080fd5b81019080803573ffffffffffffffffffffffffffffffffffffffff169060200190929190803573ffffffffffffffffffffffffffffffffffffffff1690602001909291905050506110f1565b6040518082815260200191505060405180910390f35b34801561038157600080fd5b506103ae6004803603602081101561039857600080fd5b8101908080359060200190929190505050611116565b005b3480156103bc57600080fd5b506103c561137b565b604051808273ffffffffffffffffffffffffffffffffffffffff16815260200191505060405180910390f35b3480156103fd57600080fd5b5061042a6004803603602081101561041457600080fd5b81019080803590602001909291905050506113a1565b005b34801561043857600080fd5b5061044161161e565b6040518082815260200191505060405180910390f35b34801561046357600080fd5b5061046c611624565b6040518082815260200191505060405180910390f35b34801561048e57600080fd5b506104e5600480360360608110156104a557600080fd5b8101908080359060200190929190803573ffffffffffffffffffffffffffffffffffffffff16906020019092919080359060200190929190505050611762565b6040518082815260200191505060405180910390f35b610503611a86565b005b34801561051157600080fd5b506105886004803603608081101561052857600080fd5b81019080803573ffffffffffffffffffffffffffffffffffffffff16906020019092919080359060200190929190803573ffffffffffffffffffffffffffffffffffffffff16906020019092919080359060200190929190505050611c8f565b005b34801561059657600080fd5b506105e3600480360360408110156105ad57600080fd5b81019080803573ffffffffffffffffffffffffffffffffffffffff169060200190929190803590602001909291905050506122a6565b005b3480156105f157600080fd5b5061061e6004803603602081101561060857600080fd5b8101908080359060200190929190505050612763565b604051808881526020018773ffffffffffffffffffffffffffffffffffffffff1681526020018673ffffffffffffffffffffffffffffffffffffffff1681526020018581526020018473ffffffffffffffffffffffffffffffffffffffff16815260200183815260200182815260200197505050505050505060405180910390f35b3480156106ac57600080fd5b506106b5612805565b6040518082815260200191505060405180910390f35b3480156106d757600080fd5b50610704600480360360208110156106ee57600080fd5b8101908080359060200190929190505050612963565b60405180821515815260200191505060405180910390f35b34801561072857600080fd5b5061077f6004803603606081101561073f57600080fd5b810190808035906020019092919080359060200190929190803573ffffffffffffffffffffffffffffffffffffffff169060200190929190505050612983565b005b34801561078d57600080fd5b506107f0600480360360408110156107a457600080fd5b81019080803573ffffffffffffffffffffffffffffffffffffffff169060200190929190803573ffffffffffffffffffffffffffffffffffffffff169060200190929190505050612ad3565b6040518082815260200191505060405180910390f35b60035481565b60008060009050600073ffffffffffffffffffffffffffffffffffffffff168473ffffffffffffffffffffffffffffffffffffffff16141561084d57600190505b60008590506000849050821561090b5760006108868861087860005489612b5a90919063ffffffff16565b612b9490919063ffffffff16565b90505b60008311156108f15760006108c584896108c06000546108b28988612b5a90919063ffffffff16565b612b9490919063ffffffff16565b611762565b905060008114156108d657506108f1565b6108e98185612bba90919063ffffffff16565b935050610889565b60008310156108ff57600080fd5b829450505050506109b5565b6000610934866109266000548b612b5a90919063ffffffff16565b612b9490919063ffffffff16565b90505b600082111561099f57600061097361096c60005461095e8686612b5a90919063ffffffff16565b612b9490919063ffffffff16565b8985611762565b90506000811415610984575061099f565b6109978184612bba90919063ffffffff16565b925050610937565b60008210156109ad57600080fd5b819450505050505b9392505050565b60005481565b600073ffffffffffffffffffffffffffffffffffffffff168273ffffffffffffffffffffffffffffffffffffffff161415610a65576040517f08c379a00000000000000000000000000000000000000000000000000000000081526004018080602001828103825260158152602001807f546f6b656e2063616e6e6f74206265204574686572000000000000000000000081525060200191505060405180910390fd5b8173ffffffffffffffffffffffffffffffffffffffff166323b872dd3330846040518463ffffffff1660e01b8152600401808473ffffffffffffffffffffffffffffffffffffffff1681526020018373ffffffffffffffffffffffffffffffffffffffff1681526020018281526020019350505050602060405180830381600087803b158015610af457600080fd5b505af1158015610b08573d6000803e3d6000fd5b505050506040513d6020811015610b1e57600080fd5b8101908080519060200190929190505050610b84576040517f08c379a00000000000000000000000000000000000000000000000000000000081526004018080602001828103825260238152602001806132976023913960400191505060405180910390fd5b610c1381600460008573ffffffffffffffffffffffffffffffffffffffff1673ffffffffffffffffffffffffffffffffffffffff16815260200190815260200160002060003373ffffffffffffffffffffffffffffffffffffffff1673ffffffffffffffffffffffffffffffffffffffff16815260200190815260200160002054612bda90919063ffffffff16565b600460008473ffffffffffffffffffffffffffffffffffffffff1673ffffffffffffffffffffffffffffffffffffffff16815260200190815260200160002060003373ffffffffffffffffffffffffffffffffffffffff1673ffffffffffffffffffffffffffffffffffffffff168152602001908152602001600020819055507fdcbc1c05240f31ff3ad067ef1ee35ce4997762752e3a095284754544f4c709d7823383600460008773ffffffffffffffffffffffffffffffffffffffff1673ffffffffffffffffffffffffffffffffffffffff16815260200190815260200160002060003373ffffffffffffffffffffffffffffffffffffffff1673ffffffffffffffffffffffffffffffffffffffff16815260200190815260200160002054604051808573ffffffffffffffffffffffffffffffffffffffff1681526020018473ffffffffffffffffffffffffffffffffffffffff16815260200183815260200182815260200194505050505060405180910390a15050565b80600460008073ffffffffffffffffffffffffffffffffffffffff1673ffffffffffffffffffffffffffffffffffffffff16815260200190815260200160002060003373ffffffffffffffffffffffffffffffffffffffff1673ffffffffffffffffffffffffffffffffffffffff168152602001908152602001600020541015610e80576040517f08c379a00000000000000000000000000000000000000000000000000000000081526004018080602001828103825260128152602001807f496e73756666696369656e742066756e6473000000000000000000000000000081525060200191505060405180910390fd5b610f0f81600460008073ffffffffffffffffffffffffffffffffffffffff1673ffffffffffffffffffffffffffffffffffffffff16815260200190815260200160002060003373ffffffffffffffffffffffffffffffffffffffff1673ffffffffffffffffffffffffffffffffffffffff16815260200190815260200160002054612bba90919063ffffffff16565b600460008073ffffffffffffffffffffffffffffffffffffffff1673ffffffffffffffffffffffffffffffffffffffff16815260200190815260200160002060003373ffffffffffffffffffffffffffffffffffffffff1673ffffffffffffffffffffffffffffffffffffffff168152602001908152602001600020819055503373ffffffffffffffffffffffffffffffffffffffff166108fc829081150290604051600060405180830381858888f19350505050158015610fd5573d6000803e3d6000fd5b507ff341246adaac6f497bc2a656f546ab9e182111d630394f0c57c710a59a2cb56760003383600460008073ffffffffffffffffffffffffffffffffffffffff1673ffffffffffffffffffffffffffffffffffffffff16815260200190815260200160002060003373ffffffffffffffffffffffffffffffffffffffff1673ffffffffffffffffffffffffffffffffffffffff16815260200190815260200160002054604051808573ffffffffffffffffffffffffffffffffffffffff1681526020018473ffffffffffffffffffffffffffffffffffffffff16815260200183815260200182815260200194505050505060405180910390a150565b60076020528060005260406000206000915054906101000a900460ff1681565b6004602052816000526040600020602052806000526040600020600091509150505481565b60006005600083815260200190815260200160002090503373ffffffffffffffffffffffffffffffffffffffff168160010160009054906101000a900473ffffffffffffffffffffffffffffffffffffffff1673ffffffffffffffffffffffffffffffffffffffff16146111d5576040517f08c379a000000000000000000000000000000000000000000000000000000000815260040180806020018281038252602b8152602001806132ba602b913960400191505060405180910390fd5b8181600001541461124e576040517f08c379a00000000000000000000000000000000000000000000000000000000081526004018080602001828103825260148152602001807f4f7264657220646f6573206e6f7420657869737400000000000000000000000081525060200191505060405180910390fd5b60016006600084815260200190815260200160002060006101000a81548160ff0219169083151502179055507f77de1da0be5f2d3b110d05c6694e5c4ff2d9da7cd23d84353ecf78c7b5acec618160000154338360020160009054906101000a900473ffffffffffffffffffffffffffffffffffffffff1684600301548560040160009054906101000a900473ffffffffffffffffffffffffffffffffffffffff16866005015442604051808881526020018773ffffffffffffffffffffffffffffffffffffffff1681526020018673ffffffffffffffffffffffffffffffffffffffff1681526020018581526020018473ffffffffffffffffffffffffffffffffffffffff16815260200183815260200182815260200197505050505050505060405180910390a15050565b600160009054906101000a900473ffffffffffffffffffffffffffffffffffffffff1681565b6000811180156113b357506003548111155b611425576040517f08c379a00000000000000000000000000000000000000000000000000000000081526004018080602001828103825260148152602001807f4f7264657220646f6573206e6f7420657869737400000000000000000000000081525060200191505060405180910390fd5b6007600082815260200190815260200160002060009054906101000a900460ff16156114b9576040517f08c379a00000000000000000000000000000000000000000000000000000000081526004018080602001828103825260178152602001807f4f7264657220697320616c72656164792066696c6c656400000000000000000081525060200191505060405180910390fd5b6006600082815260200190815260200160002060009054906101000a900460ff161561154d576040517f08c379a000000000000000000000000000000000000000000000000000000000815260040180806020018281038252601a8152602001807f4f7264657220697320616c72656164792063616e63656c6c656400000000000081525060200191505060405180910390fd5b60006005600083815260200190815260200160002090506115ea81600001548260010160009054906101000a900473ffffffffffffffffffffffffffffffffffffffff168360020160009054906101000a900473ffffffffffffffffffffffffffffffffffffffff1684600301548560040160009054906101000a900473ffffffffffffffffffffffffffffffffffffffff168660050154612bf9565b6001600760008360000154815260200190815260200160002060006101000a81548160ff0219169083151502179055505050565b60025481565b60008060009050600080600190505b6003548111611759576006600082815260200190815260200160002060009054906101000a900460ff16156116675761174c565b6007600082815260200190815260200160002060009054906101000a900460ff16156116925761174c565b6000600560008381526020019081526020016000209050600073ffffffffffffffffffffffffffffffffffffffff168160040160009054906101000a900473ffffffffffffffffffffffffffffffffffffffff1673ffffffffffffffffffffffffffffffffffffffff1614611707575061174c565b6000611738826003015461172a6000548560050154612b5a90919063ffffffff16565b612b9490919063ffffffff16565b905080851015611749578094508293505b50505b8080600101915050611633565b50809250505090565b60008060009050600073ffffffffffffffffffffffffffffffffffffffff168473ffffffffffffffffffffffffffffffffffffffff1614156117a357600190505b80156119165760006117d2866117c460005487612b5a90919063ffffffff16565b612b9490919063ffffffff16565b905060006117de612805565b905060008114156117f55760009350505050611a7f565b6000600560008381526020019081526020016000209050600061183d826005015461182f6000548560030154612b5a90919063ffffffff16565b612b9490919063ffffffff16565b9050808410611908578160050154891061186b5761185a836113a1565b816005015495505050505050611a7f565b611876838a8a612983565b6118f08260020160009054906101000a900473ffffffffffffffffffffffffffffffffffffffff166118c56000546118b78d86612b5a90919063ffffffff16565b612b9490919063ffffffff16565b8460040160009054906101000a900473ffffffffffffffffffffffffffffffffffffffff168c611c8f565b6118fb6003546113a1565b8895505050505050611a7f565b600095505050505050611a7f565b600061193f8461193160005489612b5a90919063ffffffff16565b612b9490919063ffffffff16565b9050600061194b611624565b905060008114156119625760009350505050611a7f565b600060056000838152602001908152602001600020905060006119aa826003015461199c6000548560050154612b5a90919063ffffffff16565b612b9490919063ffffffff16565b9050808411611a7557816003015487106119d8576119c7836113a1565b816003015495505050505050611a7f565b6119e383888a612983565b611a5d8260020160009054906101000a900473ffffffffffffffffffffffffffffffffffffffff16888460040160009054906101000a900473ffffffffffffffffffffffffffffffffffffffff16611a58600054611a4a8f8b612b5a90919063ffffffff16565b612b9490919063ffffffff16565b611c8f565b611a686003546113a1565b8695505050505050611a7f565b6000955050505050505b9392505050565b611b1534600460008073ffffffffffffffffffffffffffffffffffffffff1673ffffffffffffffffffffffffffffffffffffffff16815260200190815260200160002060003373ffffffffffffffffffffffffffffffffffffffff1673ffffffffffffffffffffffffffffffffffffffff16815260200190815260200160002054612bda90919063ffffffff16565b600460008073ffffffffffffffffffffffffffffffffffffffff1673ffffffffffffffffffffffffffffffffffffffff16815260200190815260200160002060003373ffffffffffffffffffffffffffffffffffffffff1673ffffffffffffffffffffffffffffffffffffffff168152602001908152602001600020819055507fdcbc1c05240f31ff3ad067ef1ee35ce4997762752e3a095284754544f4c709d760003334600460008073ffffffffffffffffffffffffffffffffffffffff1673ffffffffffffffffffffffffffffffffffffffff16815260200190815260200160002060003373ffffffffffffffffffffffffffffffffffffffff1673ffffffffffffffffffffffffffffffffffffffff16815260200190815260200160002054604051808573ffffffffffffffffffffffffffffffffffffffff1681526020018473ffffffffffffffffffffffffffffffffffffffff16815260200183815260200182815260200194505050505060405180910390a1565b60008073ffffffffffffffffffffffffffffffffffffffff168373ffffffffffffffffffffffffffffffffffffffff161415611cca57600190505b8015611fb9576000849050611ce085858561080c565b90506000811415611cf25750506122a0565b6000611d1b86611d0d60005487612b5a90919063ffffffff16565b612b9490919063ffffffff16565b90506003600081548092919060010191905055506040518060e0016040528060035481526020013373ffffffffffffffffffffffffffffffffffffffff1681526020018873ffffffffffffffffffffffffffffffffffffffff1681526020018381526020018673ffffffffffffffffffffffffffffffffffffffff168152602001611dc3600054611db58686612b5a90919063ffffffff16565b612b9490919063ffffffff16565b8152602001428152506005600060035481526020019081526020016000206000820151816000015560208201518160010160006101000a81548173ffffffffffffffffffffffffffffffffffffffff021916908373ffffffffffffffffffffffffffffffffffffffff16021790555060408201518160020160006101000a81548173ffffffffffffffffffffffffffffffffffffffff021916908373ffffffffffffffffffffffffffffffffffffffff1602179055506060820151816003015560808201518160040160006101000a81548173ffffffffffffffffffffffffffffffffffffffff021916908373ffffffffffffffffffffffffffffffffffffffff16021790555060a0820151816005015560c082015181600601559050507f9d33853d43e3607b4cc01fdc78338ff2dca6fef7db9232dae6d3eb55fbc3b10960035433898589611f30600054611f228a8a612b5a90919063ffffffff16565b612b9490919063ffffffff16565b42604051808881526020018773ffffffffffffffffffffffffffffffffffffffff1681526020018673ffffffffffffffffffffffffffffffffffffffff1681526020018581526020018473ffffffffffffffffffffffffffffffffffffffff16815260200183815260200182815260200197505050505050505060405180910390a1505061229e565b6000829050611fc985858561080c565b90506000811415611fdb5750506122a0565b600061200484611ff660005489612b5a90919063ffffffff16565b612b9490919063ffffffff16565b90506003600081548092919060010191905055506040518060e0016040528060035481526020013373ffffffffffffffffffffffffffffffffffffffff1681526020018873ffffffffffffffffffffffffffffffffffffffff16815260200161208a60005461207c8686612b5a90919063ffffffff16565b612b9490919063ffffffff16565b81526020018673ffffffffffffffffffffffffffffffffffffffff168152602001838152602001428152506005600060035481526020019081526020016000206000820151816000015560208201518160010160006101000a81548173ffffffffffffffffffffffffffffffffffffffff021916908373ffffffffffffffffffffffffffffffffffffffff16021790555060408201518160020160006101000a81548173ffffffffffffffffffffffffffffffffffffffff021916908373ffffffffffffffffffffffffffffffffffffffff1602179055506060820151816003015560808201518160040160006101000a81548173ffffffffffffffffffffffffffffffffffffffff021916908373ffffffffffffffffffffffffffffffffffffffff16021790555060a0820151816005015560c082015181600601559050507f9d33853d43e3607b4cc01fdc78338ff2dca6fef7db9232dae6d3eb55fbc3b10960035433896122176000546122098888612b5a90919063ffffffff16565b612b9490919063ffffffff16565b898742604051808881526020018773ffffffffffffffffffffffffffffffffffffffff1681526020018673ffffffffffffffffffffffffffffffffffffffff1681526020018581526020018473ffffffffffffffffffffffffffffffffffffffff16815260200183815260200182815260200197505050505050505060405180910390a150505b505b50505050565b600073ffffffffffffffffffffffffffffffffffffffff168273ffffffffffffffffffffffffffffffffffffffff161415612349576040517f08c379a00000000000000000000000000000000000000000000000000000000081526004018080602001828103825260158152602001807f546f6b656e2063616e6e6f74206265204574686572000000000000000000000081525060200191505060405180910390fd5b80600460008473ffffffffffffffffffffffffffffffffffffffff1673ffffffffffffffffffffffffffffffffffffffff16815260200190815260200160002060003373ffffffffffffffffffffffffffffffffffffffff1673ffffffffffffffffffffffffffffffffffffffff16815260200190815260200160002054101561243b576040517f08c379a00000000000000000000000000000000000000000000000000000000081526004018080602001828103825260128152602001807f496e73756666696369656e742066756e6473000000000000000000000000000081525060200191505060405180910390fd5b6124ca81600460008573ffffffffffffffffffffffffffffffffffffffff1673ffffffffffffffffffffffffffffffffffffffff16815260200190815260200160002060003373ffffffffffffffffffffffffffffffffffffffff1673ffffffffffffffffffffffffffffffffffffffff16815260200190815260200160002054612bba90919063ffffffff16565b600460008473ffffffffffffffffffffffffffffffffffffffff1673ffffffffffffffffffffffffffffffffffffffff16815260200190815260200160002060003373ffffffffffffffffffffffffffffffffffffffff1673ffffffffffffffffffffffffffffffffffffffff168152602001908152602001600020819055508173ffffffffffffffffffffffffffffffffffffffff1663a9059cbb33836040518363ffffffff1660e01b8152600401808373ffffffffffffffffffffffffffffffffffffffff16815260200182815260200192505050602060405180830381600087803b1580156125bb57600080fd5b505af11580156125cf573d6000803e3d6000fd5b505050506040513d60208110156125e557600080fd5b8101908080519060200190929190505050612668576040517f08c379a000000000000000000000000000000000000000000000000000000000815260040180806020018281038252601f8152602001807f63616c6c206f66207472616e7366657220646f6573206e6f74206d617463680081525060200191505060405180910390fd5b7ff341246adaac6f497bc2a656f546ab9e182111d630394f0c57c710a59a2cb567823383600460008773ffffffffffffffffffffffffffffffffffffffff1673ffffffffffffffffffffffffffffffffffffffff16815260200190815260200160002060003373ffffffffffffffffffffffffffffffffffffffff1673ffffffffffffffffffffffffffffffffffffffff16815260200190815260200160002054604051808573ffffffffffffffffffffffffffffffffffffffff1681526020018473ffffffffffffffffffffffffffffffffffffffff16815260200183815260200182815260200194505050505060405180910390a15050565b60056020528060005260406000206000915090508060000154908060010160009054906101000a900473ffffffffffffffffffffffffffffffffffffffff16908060020160009054906101000a900473ffffffffffffffffffffffffffffffffffffffff16908060030154908060040160009054906101000a900473ffffffffffffffffffffffffffffffffffffffff16908060050154908060060154905087565b6000807fffffffffffffffffffffffffffffffffffffffffffffffffffffffffffffffff9050600080600190505b600354811161295a576006600082815260200190815260200160002060009054906101000a900460ff16156128675761294d565b6007600082815260200190815260200160002060009054906101000a900460ff16156128925761294d565b6000600560008381526020019081526020016000209050600073ffffffffffffffffffffffffffffffffffffffff168160040160009054906101000a900473ffffffffffffffffffffffffffffffffffffffff1673ffffffffffffffffffffffffffffffffffffffff161415612908575061294d565b6000612939826005015461292b6000548560030154612b5a90919063ffffffff16565b612b9490919063ffffffff16565b90508085111561294a578094508293505b50505b8080600101915050612833565b50809250505090565b60066020528060005260406000206000915054906101000a900460ff1681565b60008073ffffffffffffffffffffffffffffffffffffffff168273ffffffffffffffffffffffffffffffffffffffff1614156129be57600190505b600060056000868152602001908152602001600020905081612a55576000612a0b82600301546129fd6000548560050154612b5a90919063ffffffff16565b612b9490919063ffffffff16565b9050848260030154038260030181905550612a47600054612a39846003015484612b5a90919063ffffffff16565b612b9490919063ffffffff16565b826005018190555050612acc565b6000612a868260050154612a786000548560030154612b5a90919063ffffffff16565b612b9490919063ffffffff16565b9050848260050154038260050181905550612ac2600054612ab4846005015484612b5a90919063ffffffff16565b612b9490919063ffffffff16565b8260030181905550505b5050505050565b6000600460008473ffffffffffffffffffffffffffffffffffffffff1673ffffffffffffffffffffffffffffffffffffffff16815260200190815260200160002060008373ffffffffffffffffffffffffffffffffffffffff1673ffffffffffffffffffffffffffffffffffffffff16815260200190815260200160002054905092915050565b600080831415612b6d5760009050612b8e565b6000828402905082848281612b7e57fe5b0414612b8957600080fd5b809150505b92915050565b6000808211612ba257600080fd5b6000828481612bad57fe5b0490508091505092915050565b600082821115612bc957600080fd5b600082840390508091505092915050565b600080828401905083811015612bef57600080fd5b8091505092915050565b6000612c236064612c1560025485612b5a90919063ffffffff16565b612b9490919063ffffffff16565b9050612cc6612c3b8286612bda90919063ffffffff16565b600460008873ffffffffffffffffffffffffffffffffffffffff1673ffffffffffffffffffffffffffffffffffffffff16815260200190815260200160002060003373ffffffffffffffffffffffffffffffffffffffff1673ffffffffffffffffffffffffffffffffffffffff16815260200190815260200160002054612bba90919063ffffffff16565b600460008773ffffffffffffffffffffffffffffffffffffffff1673ffffffffffffffffffffffffffffffffffffffff16815260200190815260200160002060003373ffffffffffffffffffffffffffffffffffffffff1673ffffffffffffffffffffffffffffffffffffffff16815260200190815260200160002081905550612dd584600460008873ffffffffffffffffffffffffffffffffffffffff1673ffffffffffffffffffffffffffffffffffffffff16815260200190815260200160002060008973ffffffffffffffffffffffffffffffffffffffff1673ffffffffffffffffffffffffffffffffffffffff16815260200190815260200160002054612bda90919063ffffffff16565b600460008773ffffffffffffffffffffffffffffffffffffffff1673ffffffffffffffffffffffffffffffffffffffff16815260200190815260200160002060008873ffffffffffffffffffffffffffffffffffffffff1673ffffffffffffffffffffffffffffffffffffffff16815260200190815260200160002081905550612f0681600460008873ffffffffffffffffffffffffffffffffffffffff1673ffffffffffffffffffffffffffffffffffffffff1681526020019081526020016000206000600160009054906101000a900473ffffffffffffffffffffffffffffffffffffffff1673ffffffffffffffffffffffffffffffffffffffff1673ffffffffffffffffffffffffffffffffffffffff16815260200190815260200160002054612bda90919063ffffffff16565b600460008773ffffffffffffffffffffffffffffffffffffffff1673ffffffffffffffffffffffffffffffffffffffff1681526020019081526020016000206000600160009054906101000a900473ffffffffffffffffffffffffffffffffffffffff1673ffffffffffffffffffffffffffffffffffffffff1673ffffffffffffffffffffffffffffffffffffffff1681526020019081526020016000208190555061303782600460008673ffffffffffffffffffffffffffffffffffffffff1673ffffffffffffffffffffffffffffffffffffffff16815260200190815260200160002060008973ffffffffffffffffffffffffffffffffffffffff1673ffffffffffffffffffffffffffffffffffffffff16815260200190815260200160002054612bba90919063ffffffff16565b600460008573ffffffffffffffffffffffffffffffffffffffff1673ffffffffffffffffffffffffffffffffffffffff16815260200190815260200160002060008873ffffffffffffffffffffffffffffffffffffffff1673ffffffffffffffffffffffffffffffffffffffff1681526020019081526020016000208190555061314682600460008673ffffffffffffffffffffffffffffffffffffffff1673ffffffffffffffffffffffffffffffffffffffff16815260200190815260200160002060003373ffffffffffffffffffffffffffffffffffffffff1673ffffffffffffffffffffffffffffffffffffffff16815260200190815260200160002054612bda90919063ffffffff16565b600460008573ffffffffffffffffffffffffffffffffffffffff1673ffffffffffffffffffffffffffffffffffffffff16815260200190815260200160002060003373ffffffffffffffffffffffffffffffffffffffff1673ffffffffffffffffffffffffffffffffffffffff168152602001908152602001600020819055507f0dddf4182dc0fc1a311cb75f049c97403c6b8a99cf6b2229a36e7c526acb3f818787878787873342604051808981526020018873ffffffffffffffffffffffffffffffffffffffff1681526020018773ffffffffffffffffffffffffffffffffffffffff1681526020018681526020018573ffffffffffffffffffffffffffffffffffffffff1681526020018481526020018373ffffffffffffffffffffffffffffffffffffffff1681526020018281526020019850505050505050505060405180910390a15050505050505056fe63616c6c206f66207472616e7366657246726f6d20646f6573206e6f74206d6174636843757272656e74207573657220646f6573206e6f74206d61746368206f7264657227732061646472657373a2646970667358221220402846257f49141d96e92d313604434a67da8aaa646d8c23bd290bf946c111a864736f6c63430007050033",
  "immutableReferences": {},
  "source": "// SPDX-License-Identifier: SimPL-2.0\r\npragma solidity >=0.7.4 <0.8.0;\r\n\r\nimport './Token.sol';\r\n\r\ncontract Exchange {\r\n\r\n    using SafeMath for uint;\r\n    using SafeMath for uint256;\r\n    uint256 public decimals = 10**8;\r\n\r\n    // Variables\r\n    address public feeAccount;\r\n    uint256 public feePercent;\r\n    uint256 public orderCount;\r\n    address constant ETHER = address(0);\r\n\r\n    mapping(address => mapping(address => uint256)) public tokens;\r\n    mapping(uint256 => _Order) public orders;\r\n    mapping(uint256 => bool) public orderCancelled;\r\n    mapping(uint256 => bool) public orderFilled;\r\n\r\n    // event LOG_PRICE(uint256 ret);\r\n    event LOG_RETURN(uint256 ret);\r\n    // Events\r\n    event Deposit(address token, address user, uint256 amount, uint256 balance);\r\n    event Withdraw(address token, address user, uint256 amount, uint256 balance);\r\n    event Order(\r\n        uint256 id,\r\n        address user,\r\n        address tokenGet,\r\n        uint256 amountGet,\r\n        address tokenGive,\r\n        uint256 amountGive,\r\n        uint256 timestamp\r\n    );\r\n    event Cancel(\r\n        uint256 id,\r\n        address user,\r\n        address tokenGet,\r\n        uint256 amountGet,\r\n        address tokenGive,\r\n        uint256 amountGive,\r\n        uint256 timestamp\r\n    );\r\n    event Trade(\r\n        uint256 id,\r\n        address user,\r\n        address tokenGet,\r\n        uint256 amountGet,\r\n        address tokenGive,\r\n        uint256 amountGive,\r\n        address userFill,\r\n        uint256 timestamp\r\n    );\r\n\r\n    // Structs\r\n    struct _Order {\r\n        uint256 id;\r\n        address user;\r\n        address tokenGet;\r\n        uint256 amountGet;\r\n        address tokenGive;\r\n        uint256 amountGive;\r\n        uint256 timestamp;\r\n    }\r\n\r\n    constructor(address _feeAccount, uint256 _feePercent) {\r\n        feeAccount = _feeAccount;\r\n        feePercent = _feePercent;\r\n    }\r\n\r\n    // Fallback: reverts if Ether is sent to this smart contract by mistake\r\n    fallback() external{\r\n        revert();\r\n    }\r\n\r\n    receive() external payable{}\r\n\r\n    function depositEther() public payable {\r\n        tokens[ETHER][msg.sender] = tokens[ETHER][msg.sender].add(msg.value);\r\n        emit Deposit(ETHER, msg.sender, msg.value, tokens[ETHER][msg.sender]);\r\n    }\r\n\r\n    function withdrawEther(uint _amount) public payable {\r\n        require(tokens[ETHER][msg.sender] >= _amount, 'Insufficient funds');\r\n        tokens[ETHER][msg.sender] = tokens[ETHER][msg.sender].sub(_amount);\r\n        msg.sender.transfer(_amount);\r\n        emit Withdraw(ETHER, msg.sender, _amount, tokens[ETHER][msg.sender]);\r\n    }\r\n\r\n    function depositToken(address _token, uint _amount) public {\r\n        require(_token != ETHER, 'Token cannot be Ether');\r\n        require(Token(_token).transferFrom(msg.sender, address(this), _amount), 'call of transferFrom does not match');\r\n        tokens[_token][msg.sender] = tokens[_token][msg.sender].add(_amount);\r\n        emit Deposit(_token, msg.sender, _amount, tokens[_token][msg.sender]);\r\n    }\r\n\r\n    function withdrawToken(address _token, uint256 _amount) public {\r\n        require(_token != ETHER, 'Token cannot be Ether');\r\n        require(tokens[_token][msg.sender] >= _amount, 'Insufficient funds');\r\n        tokens[_token][msg.sender] = tokens[_token][msg.sender].sub(_amount);\r\n        require(Token(_token).transfer(msg.sender, _amount), 'call of transfer does not match');\r\n        emit Withdraw(_token, msg.sender, _amount, tokens[_token][msg.sender]);\r\n    }\r\n\r\n    function balanceOf(address _token, address _user) public view returns(uint256) {\r\n        return tokens[_token][_user];\r\n    }\r\n\r\n    function makeOrder(address _tokenGet, uint256 _amountGet, address _tokenGive, uint256 _amountGive) public {\r\n        bool bs_type = false;\r\n        if (_tokenGive == 0x0000000000000000000000000000000000000000){//buy token\r\n            bs_type = true;\r\n        }\r\n        if (bs_type){\r\n            uint256 surplus = _amountGet;\r\n            surplus = doMatchs(_amountGet, _tokenGive,_amountGive);\r\n            if (surplus == 0) return;\r\n            uint256 price = _amountGive.mul(decimals).div(_amountGet);\r\n\r\n            orderCount++;\r\n            orders[orderCount] = _Order(orderCount, msg.sender, _tokenGet, surplus, _tokenGive, price.mul(surplus).div(decimals), block.timestamp);\r\n            emit Order(orderCount, msg.sender, _tokenGet, surplus, _tokenGive, price.mul(surplus).div(decimals), block.timestamp);\r\n        }\r\n        else {\r\n            uint256 surplus = _amountGive;\r\n            surplus = doMatchs(_amountGet, _tokenGive,_amountGive);\r\n            if (surplus == 0) return;\r\n            uint256 price = _amountGet.mul(decimals).div(_amountGive);\r\n\r\n            orderCount++;\r\n            orders[orderCount] = _Order(orderCount, msg.sender, _tokenGet, price.mul(surplus).div(decimals), _tokenGive, surplus, block.timestamp);\r\n            emit Order(orderCount, msg.sender, _tokenGet, price.mul(surplus).div(decimals), _tokenGive, surplus, block.timestamp);\r\n        }\r\n\r\n        // orderCount++;\r\n        // orders[orderCount] = _Order(orderCount, msg.sender, _tokenGet, _amountGet, _tokenGive, _amountGive, block.timestamp);\r\n        // emit Order(orderCount, msg.sender, _tokenGet, _amountGet, _tokenGive, _amountGive, block.timestamp);\r\n    }\r\n\r\n    function doMatchs(uint256 _amountGet, address _tokenGive, uint256 _amountGive) public returns(uint256){\r\n        bool bs_type = false;\r\n        if (_tokenGive == 0x0000000000000000000000000000000000000000){//buy token\r\n            bs_type = true;\r\n        }\r\n        uint256 amountGet = _amountGet;\r\n        uint256 amountGive = _amountGive;\r\n\r\n        if (bs_type){\r\n            uint256 price = _amountGive.mul(decimals).div(_amountGet);\r\n            while (amountGet > 0){\r\n                uint256 qty = doMatch(amountGet,_tokenGive,price.mul(amountGet).div(decimals));\r\n                if (qty == 0) break;\r\n                amountGet = amountGet.sub(qty);  \r\n            }\r\n            require(amountGet >= 0);\r\n            return amountGet;\r\n        }\r\n        else {\r\n            uint256 price = _amountGet.mul(decimals).div(_amountGive);\r\n            while (amountGive > 0){\r\n                uint256 qty = doMatch(price.mul(amountGive).div(decimals),_tokenGive,amountGive);\r\n                if (qty == 0) break;\r\n                amountGive = amountGive.sub(qty);  \r\n            }\r\n            require(amountGive >= 0);\r\n            return amountGive;\r\n        }\r\n\r\n        // if (amountGet > 0){ // \r\n        //     makeOrder(_tokenGet,amountGet,_tokenGive,price.mul(amountGet).div(decimals));\r\n        // }\r\n    }\r\n    function doMatch(uint256 _amountGet, address _tokenGive, uint256 _amountGive) public returns(uint256){\r\n        bool bs_type = false;\r\n        if (_tokenGive == 0x0000000000000000000000000000000000000000){//buy token\r\n            bs_type = true;\r\n        }\r\n\r\n        if (bs_type) {\r\n            uint256 price = _amountGive.mul(decimals).div(_amountGet);\r\n            uint256 idx = _minPriceIdx();\r\n            if (idx == 0) return 0;\r\n            _Order storage _order = orders[idx];\r\n\r\n            uint256 oldPrice = _order.amountGet.mul(decimals).div(_order.amountGive);\r\n\r\n            if (price >= oldPrice) {\r\n                if (_amountGet >= _order.amountGive) {\r\n                    fillOrder(idx);\r\n                    return _order.amountGive;\r\n                }\r\n                else {\r\n                    splitOrder(idx,_amountGet,_tokenGive);\r\n                    makeOrder(_order.tokenGet, oldPrice.mul(_amountGet).div(decimals), _order.tokenGive, _amountGet);\r\n                    fillOrder(orderCount); \r\n                    return _amountGet;\r\n                }\r\n            }\r\n            else return 0;\r\n        }\r\n        else{\r\n            uint256 price = _amountGet.mul(decimals).div(_amountGive);\r\n            uint256 idx = _maxPriceIdx();\r\n            if (idx == 0) return 0;\r\n            _Order storage _order = orders[idx];\r\n\r\n            uint256 oldPrice = _order.amountGive.mul(decimals).div(_order.amountGet);\r\n            \r\n            if (price <= oldPrice) {\r\n                if (_amountGive >= _order.amountGet) {\r\n                    fillOrder(idx);                    \r\n                    return _order.amountGet;\r\n                }\r\n                else {\r\n                    splitOrder(idx,_amountGive,_tokenGive);\r\n                    makeOrder(_order.tokenGet, _amountGive, _order.tokenGive, price.mul(_amountGet).div(decimals));\r\n                    fillOrder(orderCount); \r\n                    return _amountGive;\r\n                }\r\n            }\r\n            else return 0;\r\n        }\r\n\r\n    }\r\n\r\n    function splitOrder(uint256 _id, uint256 count, address addr) public{\r\n         bool bs_type = false;\r\n\r\n        if (addr == 0x0000000000000000000000000000000000000000){//buy token\r\n            bs_type = true;\r\n        }\r\n\r\n        _Order storage _order = orders[_id];\r\n\r\n        // require(count < _order.amountGet,'Can not split order by count');\r\n        if (!bs_type) {\r\n            uint256 price = _order.amountGive.mul(decimals).div(_order.amountGet);\r\n            _order.amountGet = _order.amountGet - count;\r\n            _order.amountGive = price.mul(_order.amountGet).div(decimals);\r\n        }\r\n        else {\r\n            uint256 price = _order.amountGet.mul(decimals).div(_order.amountGive);\r\n            _order.amountGive = _order.amountGive - count;\r\n            _order.amountGet = price.mul(_order.amountGive).div(decimals);\r\n        }\r\n        // emit Order(_order.id, _order.user, _order.tokenGet, _order.amountGet, _order.tokenGive, _order.amountGive, _order.timestamp);\r\n    }\r\n    // find max price from buy orders, and return order index\r\n    function _maxPriceIdx() public view returns(uint256){\r\n        uint256 max = 0;\r\n        uint256 idx = 0;\r\n        for (uint256 i = 1; i <= orderCount; i++){\r\n            if (orderCancelled[i]) continue;\r\n            if (orderFilled[i]) continue;\r\n            _Order storage _order = orders[i];\r\n            if (_order.tokenGive != 0x0000000000000000000000000000000000000000) continue;\r\n            uint256 _max = _order.amountGive.mul(decimals).div(_order.amountGet);\r\n            if (max < _max) {\r\n                max = _max;\r\n                idx = i;\r\n            }\r\n        }\r\n        // emit LOG_RETURN(idx);\r\n        return idx;\r\n    }\r\n\r\n    function _minPriceIdx() public view returns(uint256){\r\n        uint256 min = 2**256 - 1;\r\n        uint256 idx = 0;\r\n        for (uint256 i = 1; i <= orderCount; i++){\r\n            if (orderCancelled[i]) continue;\r\n            if (orderFilled[i]) continue;\r\n            _Order storage _order = orders[i];\r\n            if (_order.tokenGive == 0x0000000000000000000000000000000000000000) continue;\r\n            uint256 _min = _order.amountGet.mul(decimals).div(_order.amountGive);\r\n            if (min > _min) {\r\n                min = _min;\r\n                idx = i;\r\n            }\r\n        }\r\n        // emit LOG_RETURN(idx);\r\n        return idx;\r\n    }\r\n\r\n    function cancelOrder(uint256 _id) public {\r\n        _Order storage _order = orders[_id];\r\n        require(address(_order.user) == msg.sender, \"Current user does not match order's address\");\r\n        require(_order.id == _id, 'Order does not exist');\r\n        orderCancelled[_id] = true;\r\n        emit Cancel(_order.id, msg.sender, _order.tokenGet, _order.amountGet, _order.tokenGive, _order.amountGive, block.timestamp);\r\n    }\r\n\r\n    function fillOrder(uint256 _id) public {\r\n        require(_id > 0 && _id <= orderCount, 'Order does not exist');\r\n        require(!orderFilled[_id], 'Order is already filled');\r\n        require(!orderCancelled[_id], 'Order is already cancelled');\r\n        _Order storage _order = orders[_id];\r\n        _trade(_order.id, _order.user, _order.tokenGet, _order.amountGet, _order.tokenGive, _order.amountGive);\r\n        orderFilled[_order.id] = true;\r\n    }\r\n\r\n    function _trade(\r\n        uint256 _orderId,\r\n        address _user,\r\n        address _tokenGet,\r\n        uint256 _amountGet,\r\n        address _tokenGive,\r\n        uint256 _amountGive)\r\n        internal {\r\n            // Fee paid by the user that fills the order \r\n            uint256 _feeAmount = _amountGive.mul(feePercent).div(100);\r\n            // uint256 _feeAmount = 0;\r\n            tokens[_tokenGet][msg.sender] = tokens[_tokenGet][msg.sender].sub(_amountGet.add(_feeAmount));\r\n            tokens[_tokenGet][_user] = tokens[_tokenGet][_user].add(_amountGet);\r\n            tokens[_tokenGet][feeAccount] = tokens[_tokenGet][feeAccount].add(_feeAmount);\r\n            tokens[_tokenGive][_user] = tokens[_tokenGive][_user].sub(_amountGive);\r\n            tokens[_tokenGive][msg.sender] = tokens[_tokenGive][msg.sender].add(_amountGive);\r\n            emit Trade(_orderId, _user, _tokenGet, _amountGet, _tokenGive, _amountGive, msg.sender, block.timestamp);\r\n        }\r\n}\r\n",
  "sourcePath": "/home/frank/git/frank-gh/Decentralized-Exchange/src/contracts/Exchange.sol",
  "compiler": {
    "name": "solc",
    "version": "0.7.5+commit.eb77ed08.Emscripten.clang"
  },
  "schemaVersion": "3.3.1",
  "updatedAt": "2021-01-04T00:40:49.051Z",
  "networkType": "ethereum",
  "devdoc": {
    "kind": "dev",
    "methods": {},
    "version": 1
  },
  "userdoc": {
    "kind": "user",
    "methods": {},
    "version": 1
  }
}